{
    "_format": "hh-sol-artifact-1",
    "contractName": "GomGomDEX",
    "sourceName": "contracts/core/GomGomDEX.sol",
    "abi": [
        {
            "inputs": [
                {
                    "internalType": "address",
                    "name": "admin",
                    "type": "address"
                }
            ],
            "stateMutability": "nonpayable",
            "type": "constructor"
        },
        {
            "inputs": [],
            "name": "AccessControlBadConfirmation",
            "type": "error"
        },
        {
            "inputs": [
                {
                    "internalType": "address",
                    "name": "account",
                    "type": "address"
                },
                {
                    "internalType": "bytes32",
                    "name": "neededRole",
                    "type": "bytes32"
                }
            ],
            "name": "AccessControlUnauthorizedAccount",
            "type": "error"
        },
        {
            "inputs": [],
            "name": "EnforcedPause",
            "type": "error"
        },
        {
            "inputs": [],
            "name": "ExpectedPause",
            "type": "error"
        },
        {
            "inputs": [],
            "name": "ReentrancyGuardReentrantCall",
            "type": "error"
        },
        {
            "anonymous": false,
            "inputs": [
                {
                    "indexed": true,
                    "internalType": "address",
                    "name": "provider",
                    "type": "address"
                },
                {
                    "indexed": true,
                    "internalType": "address",
                    "name": "tokenA",
                    "type": "address"
                },
                {
                    "indexed": true,
                    "internalType": "address",
                    "name": "tokenB",
                    "type": "address"
                },
                {
                    "indexed": false,
                    "internalType": "uint256",
                    "name": "amountA",
                    "type": "uint256"
                },
                {
                    "indexed": false,
                    "internalType": "uint256",
                    "name": "amountB",
                    "type": "uint256"
                },
                {
                    "indexed": false,
                    "internalType": "uint256",
                    "name": "liquidity",
                    "type": "uint256"
                }
            ],
            "name": "LiquidityAdded",
            "type": "event"
        },
        {
            "anonymous": false,
            "inputs": [
                {
                    "indexed": true,
                    "internalType": "address",
                    "name": "provider",
                    "type": "address"
                },
                {
                    "indexed": true,
                    "internalType": "address",
                    "name": "tokenA",
                    "type": "address"
                },
                {
                    "indexed": true,
                    "internalType": "address",
                    "name": "tokenB",
                    "type": "address"
                },
                {
                    "indexed": false,
                    "internalType": "uint256",
                    "name": "amountA",
                    "type": "uint256"
                },
                {
                    "indexed": false,
                    "internalType": "uint256",
                    "name": "amountB",
                    "type": "uint256"
                },
                {
                    "indexed": false,
                    "internalType": "uint256",
                    "name": "liquidity",
                    "type": "uint256"
                }
            ],
            "name": "LiquidityRemoved",
            "type": "event"
        },
        {
            "anonymous": false,
            "inputs": [
                {
                    "indexed": false,
                    "internalType": "address",
                    "name": "account",
                    "type": "address"
                }
            ],
            "name": "Paused",
            "type": "event"
        },
        {
            "anonymous": false,
            "inputs": [
                {
                    "indexed": true,
                    "internalType": "bytes32",
                    "name": "role",
                    "type": "bytes32"
                },
                {
                    "indexed": true,
                    "internalType": "bytes32",
                    "name": "previousAdminRole",
                    "type": "bytes32"
                },
                {
                    "indexed": true,
                    "internalType": "bytes32",
                    "name": "newAdminRole",
                    "type": "bytes32"
                }
            ],
            "name": "RoleAdminChanged",
            "type": "event"
        },
        {
            "anonymous": false,
            "inputs": [
                {
                    "indexed": true,
                    "internalType": "bytes32",
                    "name": "role",
                    "type": "bytes32"
                },
                {
                    "indexed": true,
                    "internalType": "address",
                    "name": "account",
                    "type": "address"
                },
                {
                    "indexed": true,
                    "internalType": "address",
                    "name": "sender",
                    "type": "address"
                }
            ],
            "name": "RoleGranted",
            "type": "event"
        },
        {
            "anonymous": false,
            "inputs": [
                {
                    "indexed": true,
                    "internalType": "bytes32",
                    "name": "role",
                    "type": "bytes32"
                },
                {
                    "indexed": true,
                    "internalType": "address",
                    "name": "account",
                    "type": "address"
                },
                {
                    "indexed": true,
                    "internalType": "address",
                    "name": "sender",
                    "type": "address"
                }
            ],
            "name": "RoleRevoked",
            "type": "event"
        },
        {
            "anonymous": false,
            "inputs": [
                {
                    "indexed": true,
                    "internalType": "address",
                    "name": "user",
                    "type": "address"
                },
                {
                    "indexed": true,
                    "internalType": "address",
                    "name": "tokenIn",
                    "type": "address"
                },
                {
                    "indexed": true,
                    "internalType": "address",
                    "name": "tokenOut",
                    "type": "address"
                },
                {
                    "indexed": false,
                    "internalType": "uint256",
                    "name": "amountIn",
                    "type": "uint256"
                },
                {
                    "indexed": false,
                    "internalType": "uint256",
                    "name": "amountOut",
                    "type": "uint256"
                }
            ],
            "name": "Swap",
            "type": "event"
        },
        {
            "anonymous": false,
            "inputs": [
                {
                    "indexed": false,
                    "internalType": "address",
                    "name": "account",
                    "type": "address"
                }
            ],
            "name": "Unpaused",
            "type": "event"
        },
        {
            "inputs": [],
            "name": "DEFAULT_ADMIN_ROLE",
            "outputs": [
                {
                    "internalType": "bytes32",
                    "name": "",
                    "type": "bytes32"
                }
            ],
            "stateMutability": "view",
            "type": "function"
        },
        {
            "inputs": [],
            "name": "LIQUIDITY_MANAGER_ROLE",
            "outputs": [
                {
                    "internalType": "bytes32",
                    "name": "",
                    "type": "bytes32"
                }
            ],
            "stateMutability": "view",
            "type": "function"
        },
        {
            "inputs": [],
            "name": "MINIMUM_LIQUIDITY",
            "outputs": [
                {
                    "internalType": "uint256",
                    "name": "",
                    "type": "uint256"
                }
            ],
            "stateMutability": "view",
            "type": "function"
        },
        {
            "inputs": [],
            "name": "PAUSER_ROLE",
            "outputs": [
                {
                    "internalType": "bytes32",
                    "name": "",
                    "type": "bytes32"
                }
            ],
            "stateMutability": "view",
            "type": "function"
        },
        {
            "inputs": [
                {
                    "internalType": "address",
                    "name": "tokenA",
                    "type": "address"
                },
                {
                    "internalType": "address",
                    "name": "tokenB",
                    "type": "address"
                },
                {
                    "internalType": "uint256",
                    "name": "amountA",
                    "type": "uint256"
                },
                {
                    "internalType": "uint256",
                    "name": "amountB",
                    "type": "uint256"
                },
                {
                    "internalType": "uint256",
                    "name": "amountAMin",
                    "type": "uint256"
                },
                {
                    "internalType": "uint256",
                    "name": "amountBMin",
                    "type": "uint256"
                },
                {
                    "internalType": "address",
                    "name": "to",
                    "type": "address"
                },
                {
                    "internalType": "uint256",
                    "name": "deadline",
                    "type": "uint256"
                }
            ],
            "name": "addLiquidity",
            "outputs": [
                {
                    "internalType": "uint256",
                    "name": "amountAAdded",
                    "type": "uint256"
                },
                {
                    "internalType": "uint256",
                    "name": "amountBAdded",
                    "type": "uint256"
                },
                {
                    "internalType": "uint256",
                    "name": "liquidity",
                    "type": "uint256"
                }
            ],
            "stateMutability": "nonpayable",
            "type": "function"
        },
        {
            "inputs": [],
            "name": "feeRate",
            "outputs": [
                {
                    "internalType": "uint256",
                    "name": "",
                    "type": "uint256"
                }
            ],
            "stateMutability": "view",
            "type": "function"
        },
        {
            "inputs": [],
            "name": "getAllPoolIds",
            "outputs": [
                {
                    "internalType": "bytes32[]",
                    "name": "",
                    "type": "bytes32[]"
                }
            ],
            "stateMutability": "view",
            "type": "function"
        },
        {
            "inputs": [
                {
                    "internalType": "uint256",
                    "name": "amountIn",
                    "type": "uint256"
                },
                {
                    "internalType": "uint256",
                    "name": "reserveIn",
                    "type": "uint256"
                },
                {
                    "internalType": "uint256",
                    "name": "reserveOut",
                    "type": "uint256"
                }
            ],
            "name": "getAmountOut",
            "outputs": [
                {
                    "internalType": "uint256",
                    "name": "amountOut",
                    "type": "uint256"
                }
            ],
            "stateMutability": "view",
            "type": "function"
        },
        {
            "inputs": [
                {
                    "internalType": "address",
                    "name": "tokenA",
                    "type": "address"
                },
                {
                    "internalType": "address",
                    "name": "tokenB",
                    "type": "address"
                },
                {
                    "internalType": "address",
                    "name": "user",
                    "type": "address"
                }
            ],
            "name": "getLiquidityBalance",
            "outputs": [
                {
                    "internalType": "uint256",
                    "name": "balance",
                    "type": "uint256"
                }
            ],
            "stateMutability": "view",
            "type": "function"
        },
        {
            "inputs": [
                {
                    "internalType": "address",
                    "name": "tokenA",
                    "type": "address"
                },
                {
                    "internalType": "address",
                    "name": "tokenB",
                    "type": "address"
                }
            ],
            "name": "getReserves",
            "outputs": [
                {
                    "internalType": "uint256",
                    "name": "reserveA",
                    "type": "uint256"
                },
                {
                    "internalType": "uint256",
                    "name": "reserveB",
                    "type": "uint256"
                }
            ],
            "stateMutability": "view",
            "type": "function"
        },
        {
            "inputs": [
                {
                    "internalType": "bytes32",
                    "name": "role",
                    "type": "bytes32"
                }
            ],
            "name": "getRoleAdmin",
            "outputs": [
                {
                    "internalType": "bytes32",
                    "name": "",
                    "type": "bytes32"
                }
            ],
            "stateMutability": "view",
            "type": "function"
        },
        {
            "inputs": [
                {
                    "internalType": "bytes32",
                    "name": "role",
                    "type": "bytes32"
                },
                {
                    "internalType": "address",
                    "name": "account",
                    "type": "address"
                }
            ],
            "name": "grantRole",
            "outputs": [],
            "stateMutability": "nonpayable",
            "type": "function"
        },
        {
            "inputs": [
                {
                    "internalType": "bytes32",
                    "name": "role",
                    "type": "bytes32"
                },
                {
                    "internalType": "address",
                    "name": "account",
                    "type": "address"
                }
            ],
            "name": "hasRole",
            "outputs": [
                {
                    "internalType": "bool",
                    "name": "",
                    "type": "bool"
                }
            ],
            "stateMutability": "view",
            "type": "function"
        },
        {
            "inputs": [],
            "name": "pause",
            "outputs": [],
            "stateMutability": "nonpayable",
            "type": "function"
        },
        {
            "inputs": [],
            "name": "paused",
            "outputs": [
                {
                    "internalType": "bool",
                    "name": "",
                    "type": "bool"
                }
            ],
            "stateMutability": "view",
            "type": "function"
        },
        {
            "inputs": [
                {
                    "internalType": "address",
                    "name": "tokenA",
                    "type": "address"
                },
                {
                    "internalType": "address",
                    "name": "tokenB",
                    "type": "address"
                },
                {
                    "internalType": "uint256",
                    "name": "liquidity",
                    "type": "uint256"
                },
                {
                    "internalType": "uint256",
                    "name": "amountAMin",
                    "type": "uint256"
                },
                {
                    "internalType": "uint256",
                    "name": "amountBMin",
                    "type": "uint256"
                },
                {
                    "internalType": "address",
                    "name": "to",
                    "type": "address"
                },
                {
                    "internalType": "uint256",
                    "name": "deadline",
                    "type": "uint256"
                }
            ],
            "name": "removeLiquidity",
            "outputs": [
                {
                    "internalType": "uint256",
                    "name": "amountA",
                    "type": "uint256"
                },
                {
                    "internalType": "uint256",
                    "name": "amountB",
                    "type": "uint256"
                }
            ],
            "stateMutability": "nonpayable",
            "type": "function"
        },
        {
            "inputs": [
                {
                    "internalType": "bytes32",
                    "name": "role",
                    "type": "bytes32"
                },
                {
                    "internalType": "address",
                    "name": "callerConfirmation",
                    "type": "address"
                }
            ],
            "name": "renounceRole",
            "outputs": [],
            "stateMutability": "nonpayable",
            "type": "function"
        },
        {
            "inputs": [
                {
                    "internalType": "bytes32",
                    "name": "role",
                    "type": "bytes32"
                },
                {
                    "internalType": "address",
                    "name": "account",
                    "type": "address"
                }
            ],
            "name": "revokeRole",
            "outputs": [],
            "stateMutability": "nonpayable",
            "type": "function"
        },
        {
            "inputs": [
                {
                    "internalType": "uint256",
                    "name": "newFeeRate",
                    "type": "uint256"
                }
            ],
            "name": "setFeeRate",
            "outputs": [],
            "stateMutability": "nonpayable",
            "type": "function"
        },
        {
            "inputs": [
                {
                    "internalType": "bytes4",
                    "name": "interfaceId",
                    "type": "bytes4"
                }
            ],
            "name": "supportsInterface",
            "outputs": [
                {
                    "internalType": "bool",
                    "name": "",
                    "type": "bool"
                }
            ],
            "stateMutability": "view",
            "type": "function"
        },
        {
            "inputs": [
                {
                    "internalType": "address",
                    "name": "tokenIn",
                    "type": "address"
                },
                {
                    "internalType": "address",
                    "name": "tokenOut",
                    "type": "address"
                },
                {
                    "internalType": "uint256",
                    "name": "amountIn",
                    "type": "uint256"
                },
                {
                    "internalType": "uint256",
                    "name": "amountOutMin",
                    "type": "uint256"
                },
                {
                    "internalType": "address",
                    "name": "to",
                    "type": "address"
                },
                {
                    "internalType": "uint256",
                    "name": "deadline",
                    "type": "uint256"
                }
            ],
            "name": "swap",
            "outputs": [
                {
                    "internalType": "uint256",
                    "name": "amountOut",
                    "type": "uint256"
                }
            ],
            "stateMutability": "nonpayable",
            "type": "function"
        },
        {
            "inputs": [],
            "name": "unpause",
            "outputs": [],
            "stateMutability": "nonpayable",
            "type": "function"
        }
    ],
    "bytecode": "0x6080346100e157601f611a6338819003918201601f19168301916001600160401b038311848410176100e6578084926020946040528339810103126100e157516001600160a01b0381168082036100e1576001600255601e6005551561008c578061006c61007c926100fc565b5061007681610178565b50610210565b5060405161173a90816102a98239f35b60405162461bcd60e51b815260206004820152602760248201527f476f6d476f6d4445583a2061646d696e2063616e6e6f74206265207a65726f206044820152666164647265737360c81b6064820152608490fd5b600080fd5b634e487b7160e01b600052604160045260246000fd5b6001600160a01b0381166000908152600080516020611a43833981519152602052604090205460ff16610172576001600160a01b03166000818152600080516020611a4383398151915260205260408120805460ff191660011790553391906000805160206119e38339815191528180a4600190565b50600090565b6001600160a01b0381166000908152600080516020611a23833981519152602052604090205460ff16610172576001600160a01b03166000818152600080516020611a2383398151915260205260408120805460ff191660011790553391907f65d7a28e3265b37a6474929f336521b332c1681b933f6cb9f3376673440d862a906000805160206119e38339815191529080a4600190565b6001600160a01b0381166000908152600080516020611a03833981519152602052604090205460ff16610172576001600160a01b03166000818152600080516020611a0383398151915260205260408120805460ff191660011790553391907f77e60b99a50d27fb027f6912a507d956105b4148adab27a86d235c8bcca8fa2f906000805160206119e38339815191529080a460019056fe608080604052600436101561001357600080fd5b60003560e01c90816301ffc9a7146110c657508063054d50d4146110a2578063242f055114611067578063248a9ca3146110325780632f2ff15d14610ff257806336568abe14610fac5780633f4ba83a14610f4357806345596e2e14610e8a5780635c975abb14610e675780638456cb5914610e0e57806391d1485414610dc1578063978bbdb914610da35780639908fc8b14610b01578063a217fddf14610ae5578063ba9a7a5614610ac8578063baa2abde1461085b578063d52bb6f414610823578063d547741f146107dc578063e63ab1e9146107a1578063e8e337001461023e578063f0a00468146101d05763f19c3d5b1461011157600080fd5b346101cb5760003660031901126101cb576040518060206004549283815201809260046000527f8a35acfbc15ff81a39ae7d344fd709f28e8600b4aa8c65c6b64bfe7fe36bd19b9060005b8181106101b557505050816101729103826113e7565b6040519182916020830190602084525180915260408301919060005b81811061019c575050500390f35b825184528594506020938401939092019160010161018e565b825484526020909301926001928301920161015c565b600080fd5b346101cb5760603660031901126101cb576101e961112f565b6101f1611119565b60443591906001600160a01b03831683036101cb5761020f9161169e565b600052600360205260056040600020019060018060a01b03166000526020526020604060002054604051908152f35b346101cb576101003660031901126101cb5761025861112f565b610260611119565b604435916064359160c4356001600160a01b03811691908290036101cb57610286611661565b61028e611681565b60009261029f60e4354211156112b7565b6001600160a01b0382811692908216916102bb83851415611303565b82151580610798575b15610753576040916102f2918915158061074a575b6102e290611421565b6102ed87151561134f565b61169e565b94858152600360205220936006850160ff8154161560001461061f5785546001600160a01b031990811684178755600180880180549092168617909155815460ff1916179055600454680100000000000000008110156106095760018101806004558110156105f35760046000527f8a35acfbc15ff81a39ae7d344fd709f28e8600b4aa8c65c6b64bfe7fe36bd19b015561038f86958097611200565b600060038211156105e55750808060011c600181018091116105b057905b8282106105c65750505b6103e71981019081116105b0579260008052600585016020526103e86040600020555b831561055a576040516323b872dd60e01b8152336004820152306024820152604481018790526020816064816000875af180156105315761053d575b506040516323b872dd60e01b815233600482015230602482015260448101889052946020866064816000885af19081156105315761050096600592610504575b5060028101610466898254611213565b9055600381016104778a8254611213565b905560048101610488878254611213565b9055826000520160205260406000206104a2858254611213565b905560408051878152602081018990529081018590527f43c967b388d3a4ccad3f7ab80167852e322e5a3fde9893f530252281b2ae8b7090606090a46001600255604051938493846040919493926060820195825260208201520152565b0390f35b6105259060203d60201161052a575b61051d81836113e7565b810190611409565b610456565b503d610513565b6040513d6000823e3d90fd5b6105559060203d60201161052a5761051d81836113e7565b610416565b60405162461bcd60e51b815260206004820152602860248201527f476f6d476f6d4445583a20696e73756666696369656e74206c697175696469746044820152671e481b5a5b9d195960c21b6064820152608490fd5b634e487b7160e01b600052601160045260246000fd5b9091506105dc826105d78184611220565b611213565b60011c906103ad565b90156103b7575060016103b7565b634e487b7160e01b600052603260045260246000fd5b634e487b7160e01b600052604160045260246000fd5b5050600284015460038501549661063f8261063a8a84611200565b611220565b968088116106d0575060a435871061068c576106759096975b61063a61066e60048901549461063a868c611200565b938a611200565b8082101561068557505b926103da565b905061067f565b606460405162461bcd60e51b815260206004820152602060248201527f476f6d476f6d4445583a20696e73756666696369656e74204220616d6f756e746044820152fd5b96506106e08861063a848a611200565b908111158061073e575b156106fa57610675909697610658565b606460405162461bcd60e51b815260206004820152602060248201527f476f6d476f6d4445583a20696e73756666696369656e74204120616d6f756e746044820152fd5b506084358110156106ea565b508815156102d9565b60405162461bcd60e51b815260206004820152601760248201527f476f6d476f6d4445583a207a65726f20616464726573730000000000000000006044820152606490fd5b508315156102c4565b346101cb5760003660031901126101cb5760206040517f65d7a28e3265b37a6474929f336521b332c1681b933f6cb9f3376673440d862a8152f35b346101cb5760403660031901126101cb576108216004356107fb611119565b9061081c61081782600052600060205260016040600020015490565b611519565b6115df565b005b346101cb5760403660031901126101cb57604061084f61084161112f565b610849611119565b9061146d565b82519182526020820152f35b346101cb5760e03660031901126101cb5761087461112f565b61087c611119565b906044359060a4356001600160a01b0381168082036101cb576108be906108a1611661565b6108a9611681565b6108b760c4354211156112b7565b151561134f565b6108c8848361169e565b60005260036020526040600020926108e660ff60068601541661139b565b600584019260018060a01b0333166000528360205261090c82604060002054101561119d565b60048501805490600287019061093a600361092c8561063a86548a611200565b99019361063a855488611200565b9660643589101580610abc575b61095090611421565b60018060a01b033316600052602052604060002061096f8682546111f3565b905561097c8582546111f3565b90556109898782546111f3565b90556109968582546111f3565b905560405163a9059cbb60e01b81526001600160a01b038481166004830152602482018790529190911691906020816044816000875af1801561053157610a17976020928792610aa1575b5060405163a9059cbb60e01b81526001600160a01b03968716600482015260248101929092529097941693879081906044820190565b03816000875af195861561053157604096610a84575b507fd765e08eef31c0983ecca03ecd166297ac485ecd5dd69e291c848f0a020333c1865180610a703394888a846040919493926060820195825260208201520152565b0390a4600160025582519182526020820152f35b610a9c9060203d60201161052a5761051d81836113e7565b610a2d565b610ab790843d861161052a5761051d81836113e7565b6109e1565b50608435881015610947565b346101cb5760003660031901126101cb5760206040516103e88152f35b346101cb5760003660031901126101cb57602060405160008152f35b346101cb5760c03660031901126101cb57610b1a61112f565b610b22611119565b60843591604435916001600160a01b038416908185036101cb57610b8990610b48611661565b610b50611681565b610b5e60a4354211156112b7565b6001600160a01b0381811694908116936102ed90610b7e86881415611303565b6108b7881515611145565b6000526003602052604060002092610ba760ff60068601541661139b565b83546001600160a01b03168203610d8e57600284015493610bcf600382015480965b84611240565b946064358610610d3b57610be490861061119d565b6040516323b872dd60e01b8152336004820152306024820152604481018390526020816064816000885af1801561053157610c55976020928892610d20575b5060405163a9059cbb60e01b81526001600160a01b039091166004820152602481019190915296879081906044820190565b03816000885af195861561053157602096610d05575b5080546001600160a01b03168303610cde5780600260039201610c8f848254611213565b905501610c9d8582546111f3565b90555b60405190815283858201527fcd3829a3813dc3cdd188fd3d01dcf3268c16be2fdd2dd21d0665418816e4606260403392a46001600255604051908152f35b80600360029201610cf0848254611213565b905501610cfe8582546111f3565b9055610ca0565b610d1b90873d891161052a5761051d81836113e7565b610c6b565b610d3690843d861161052a5761051d81836113e7565b610c23565b60405162461bcd60e51b815260206004820152602560248201527f476f6d476f6d4445583a20696e73756666696369656e74206f757470757420616044820152641b5bdd5b9d60da1b6064820152608490fd5b600384015493610bcf60028201548096610bc9565b346101cb5760003660031901126101cb576020600554604051908152f35b346101cb5760403660031901126101cb57610dda611119565b600435600052600060205260406000209060018060a01b0316600052602052602060ff604060002054166040519015158152f35b346101cb5760003660031901126101cb57610e276114a7565b610e2f611681565b600160ff19815416176001557f62e78cea01bee320cd4e420270b5ea74000d11b0c9f74754ebdbfc544b05a2586020604051338152a1005b346101cb5760003660031901126101cb57602060ff600154166040519015158152f35b346101cb5760203660031901126101cb573360009081527fad3228b676f7d3cd4284a5443f17f1962b36e491b30a40b2405849e597ba5fb560205260409020546004359060ff1615610f29576103e88111610ee457600555005b60405162461bcd60e51b815260206004820152601c60248201527f476f6d476f6d4445583a20666565207261746520746f6f2068696768000000006044820152606490fd5b63e2517d3f60e01b60005233600452600060245260446000fd5b346101cb5760003660031901126101cb57610f5c6114a7565b60015460ff811615610f9b5760ff19166001557f5db9ee0a495bf2e6ff9c91a7834c1ba4fdd244a5e8aa4e537bd38aeae4b073aa6020604051338152a1005b638dfc202b60e01b60005260046000fd5b346101cb5760403660031901126101cb57610fc5611119565b336001600160a01b03821603610fe157610821906004356115df565b63334bd91960e11b60005260046000fd5b346101cb5760403660031901126101cb57610821600435611011611119565b9061102d61081782600052600060205260016040600020015490565b611554565b346101cb5760203660031901126101cb57602061105f600435600052600060205260016040600020015490565b604051908152f35b346101cb5760003660031901126101cb5760206040517f77e60b99a50d27fb027f6912a507d956105b4148adab27a86d235c8bcca8fa2f8152f35b346101cb5760603660031901126101cb57602061105f604435602435600435611240565b346101cb5760203660031901126101cb576004359063ffffffff60e01b82168092036101cb57602091637965db0b60e01b8114908115611108575b5015158152f35b6301ffc9a760e01b14905083611101565b602435906001600160a01b03821682036101cb57565b600435906001600160a01b03821682036101cb57565b1561114c57565b60405162461bcd60e51b8152602060048201526024808201527f476f6d476f6d4445583a20696e73756666696369656e7420696e70757420616d6044820152631bdd5b9d60e21b6064820152608490fd5b156111a457565b60405162461bcd60e51b815260206004820152602160248201527f476f6d476f6d4445583a20696e73756666696369656e74206c697175696469746044820152607960f81b6064820152608490fd5b919082039182116105b057565b818102929181159184041417156105b057565b919082018092116105b057565b811561122a570490565b634e487b7160e01b600052601260045260246000fd5b9061124c821515611145565b8015918215806112ae575b6112609061119d565b600554612710039061271082116105b0576112859161127e91611200565b9384611200565b9161271082029182046127101417156105b0576112ab926112a591611213565b90611220565b90565b50831515611257565b156112be57565b60405162461bcd60e51b815260206004820152601c60248201527f476f6d476f6d4445583a20646561646c696e65206578636565646564000000006044820152606490fd5b1561130a57565b60405162461bcd60e51b815260206004820152601b60248201527f476f6d476f6d4445583a206964656e746963616c20746f6b656e7300000000006044820152606490fd5b1561135657565b60405162461bcd60e51b815260206004820152601c60248201527f476f6d476f6d4445583a20696e76616c696420726563697069656e74000000006044820152606490fd5b156113a257565b60405162461bcd60e51b815260206004820152601e60248201527f476f6d476f6d4445583a20706f6f6c20646f6573206e6f7420657869737400006044820152606490fd5b90601f8019910116810190811067ffffffffffffffff82111761060957604052565b908160209103126101cb575180151581036101cb5790565b1561142857565b60405162461bcd60e51b815260206004820152601f60248201527f476f6d476f6d4445583a20696e73756666696369656e7420616d6f756e7473006044820152606490fd5b906114779161169e565b600052600360205260406000209060ff6006830154161561149f576003600283015492015490565b600091508190565b3360009081527ff7c9542c591017a21c74b6f3fab6263c7952fc0aaf9db4c22a2a04ddc7f8674f602052604090205460ff16156114e057565b63e2517d3f60e01b600052336004527f65d7a28e3265b37a6474929f336521b332c1681b933f6cb9f3376673440d862a60245260446000fd5b60008181526020818152604080832033845290915290205460ff161561153c5750565b63e2517d3f60e01b6000523360045260245260446000fd5b6000818152602081815260408083206001600160a01b038616845290915290205460ff166115d8576000818152602081815260408083206001600160a01b0395909516808452949091528120805460ff19166001179055339291907f2f8788117e7eff1d82e926ec794901d17c78024a50270940304540a733656f0d9080a4600190565b5050600090565b6000818152602081815260408083206001600160a01b038616845290915290205460ff16156115d8576000818152602081815260408083206001600160a01b0395909516808452949091528120805460ff19169055339291907ff6391f5c32d9c69d2a47ea670b442974b53935d1edc7fd64eb21e047a839171b9080a4600190565b60028054146116705760028055565b633ee5aeb560e01b60005260046000fd5b60ff6001541661168d57565b63d93c066560e01b60005260046000fd5b6001600160a01b0382811690821610156116ff57905b6040519060208201926bffffffffffffffffffffffff199060601b1683526bffffffffffffffffffffffff199060601b166034820152602881526116f96048826113e7565b51902090565b6116b456fea264697066735822122014cf94c72978139b93815e9827fbd510b181db0d72db40a66bc824adc64810a564736f6c634300081c00332f8788117e7eff1d82e926ec794901d17c78024a50270940304540a733656f0db8a5653c31e8e07e8ef5c22c947cfb9ffb7305e1fa1930db175624824a230ddff7c9542c591017a21c74b6f3fab6263c7952fc0aaf9db4c22a2a04ddc7f8674fad3228b676f7d3cd4284a5443f17f1962b36e491b30a40b2405849e597ba5fb5",
    "linkReferences": {},
    "deployedLinkReferences": {}
}