{
  "_format": "hh-sol-artifact-1",
  "contractName": "GomGomTokenFactory",
  "sourceName": "contracts/core/GomGomTokenFactory.sol",
  "abi": [
    {
      "inputs": [
        {
          "internalType": "address",
          "name": "admin",
          "type": "address"
        }
      ],
      "stateMutability": "nonpayable",
      "type": "constructor"
    },
    {
      "inputs": [],
      "name": "AccessControlBadConfirmation",
      "type": "error"
    },
    {
      "inputs": [
        {
          "internalType": "address",
          "name": "account",
          "type": "address"
        },
        {
          "internalType": "bytes32",
          "name": "neededRole",
          "type": "bytes32"
        }
      ],
      "name": "AccessControlUnauthorizedAccount",
      "type": "error"
    },
    {
      "inputs": [],
      "name": "EnforcedPause",
      "type": "error"
    },
    {
      "inputs": [],
      "name": "ExpectedPause",
      "type": "error"
    },
    {
      "anonymous": false,
      "inputs": [
        {
          "indexed": true,
          "internalType": "address",
          "name": "brandWallet",
          "type": "address"
        },
        {
          "indexed": true,
          "internalType": "address",
          "name": "tokenAddress",
          "type": "address"
        },
        {
          "indexed": false,
          "internalType": "string",
          "name": "name",
          "type": "string"
        },
        {
          "indexed": false,
          "internalType": "string",
          "name": "symbol",
          "type": "string"
        }
      ],
      "name": "BrandTokenDeployed",
      "type": "event"
    },
    {
      "anonymous": false,
      "inputs": [
        {
          "indexed": true,
          "internalType": "address",
          "name": "brandWallet",
          "type": "address"
        },
        {
          "indexed": true,
          "internalType": "address",
          "name": "tokenAddress",
          "type": "address"
        }
      ],
      "name": "BrandTokenRegistered",
      "type": "event"
    },
    {
      "anonymous": false,
      "inputs": [
        {
          "indexed": false,
          "internalType": "address",
          "name": "account",
          "type": "address"
        }
      ],
      "name": "Paused",
      "type": "event"
    },
    {
      "anonymous": false,
      "inputs": [
        {
          "indexed": true,
          "internalType": "bytes32",
          "name": "role",
          "type": "bytes32"
        },
        {
          "indexed": true,
          "internalType": "bytes32",
          "name": "previousAdminRole",
          "type": "bytes32"
        },
        {
          "indexed": true,
          "internalType": "bytes32",
          "name": "newAdminRole",
          "type": "bytes32"
        }
      ],
      "name": "RoleAdminChanged",
      "type": "event"
    },
    {
      "anonymous": false,
      "inputs": [
        {
          "indexed": true,
          "internalType": "bytes32",
          "name": "role",
          "type": "bytes32"
        },
        {
          "indexed": true,
          "internalType": "address",
          "name": "account",
          "type": "address"
        },
        {
          "indexed": true,
          "internalType": "address",
          "name": "sender",
          "type": "address"
        }
      ],
      "name": "RoleGranted",
      "type": "event"
    },
    {
      "anonymous": false,
      "inputs": [
        {
          "indexed": true,
          "internalType": "bytes32",
          "name": "role",
          "type": "bytes32"
        },
        {
          "indexed": true,
          "internalType": "address",
          "name": "account",
          "type": "address"
        },
        {
          "indexed": true,
          "internalType": "address",
          "name": "sender",
          "type": "address"
        }
      ],
      "name": "RoleRevoked",
      "type": "event"
    },
    {
      "anonymous": false,
      "inputs": [
        {
          "indexed": false,
          "internalType": "address",
          "name": "account",
          "type": "address"
        }
      ],
      "name": "Unpaused",
      "type": "event"
    },
    {
      "inputs": [],
      "name": "BRAND_MANAGER_ROLE",
      "outputs": [
        {
          "internalType": "bytes32",
          "name": "",
          "type": "bytes32"
        }
      ],
      "stateMutability": "view",
      "type": "function"
    },
    {
      "inputs": [],
      "name": "DEFAULT_ADMIN_ROLE",
      "outputs": [
        {
          "internalType": "bytes32",
          "name": "",
          "type": "bytes32"
        }
      ],
      "stateMutability": "view",
      "type": "function"
    },
    {
      "inputs": [],
      "name": "PAUSER_ROLE",
      "outputs": [
        {
          "internalType": "bytes32",
          "name": "",
          "type": "bytes32"
        }
      ],
      "stateMutability": "view",
      "type": "function"
    },
    {
      "inputs": [
        {
          "internalType": "string",
          "name": "name",
          "type": "string"
        },
        {
          "internalType": "string",
          "name": "symbol",
          "type": "string"
        },
        {
          "internalType": "address",
          "name": "brandWallet",
          "type": "address"
        }
      ],
      "name": "deployBrandToken",
      "outputs": [
        {
          "internalType": "address",
          "name": "tokenAddress",
          "type": "address"
        }
      ],
      "stateMutability": "nonpayable",
      "type": "function"
    },
    {
      "inputs": [],
      "name": "getAllBrandTokens",
      "outputs": [
        {
          "internalType": "address[]",
          "name": "brands",
          "type": "address[]"
        },
        {
          "internalType": "address[]",
          "name": "tokens",
          "type": "address[]"
        }
      ],
      "stateMutability": "view",
      "type": "function"
    },
    {
      "inputs": [],
      "name": "getBrandCount",
      "outputs": [
        {
          "internalType": "uint256",
          "name": "count",
          "type": "uint256"
        }
      ],
      "stateMutability": "view",
      "type": "function"
    },
    {
      "inputs": [
        {
          "internalType": "address",
          "name": "brandWallet",
          "type": "address"
        }
      ],
      "name": "getBrandTokenAddress",
      "outputs": [
        {
          "internalType": "address",
          "name": "tokenAddress",
          "type": "address"
        }
      ],
      "stateMutability": "view",
      "type": "function"
    },
    {
      "inputs": [
        {
          "internalType": "bytes32",
          "name": "role",
          "type": "bytes32"
        }
      ],
      "name": "getRoleAdmin",
      "outputs": [
        {
          "internalType": "bytes32",
          "name": "",
          "type": "bytes32"
        }
      ],
      "stateMutability": "view",
      "type": "function"
    },
    {
      "inputs": [
        {
          "internalType": "address",
          "name": "tokenAddress",
          "type": "address"
        }
      ],
      "name": "getTokenBrand",
      "outputs": [
        {
          "internalType": "address",
          "name": "brandWallet",
          "type": "address"
        }
      ],
      "stateMutability": "view",
      "type": "function"
    },
    {
      "inputs": [
        {
          "internalType": "bytes32",
          "name": "role",
          "type": "bytes32"
        },
        {
          "internalType": "address",
          "name": "account",
          "type": "address"
        }
      ],
      "name": "grantRole",
      "outputs": [],
      "stateMutability": "nonpayable",
      "type": "function"
    },
    {
      "inputs": [
        {
          "internalType": "bytes32",
          "name": "role",
          "type": "bytes32"
        },
        {
          "internalType": "address",
          "name": "account",
          "type": "address"
        }
      ],
      "name": "hasRole",
      "outputs": [
        {
          "internalType": "bool",
          "name": "",
          "type": "bool"
        }
      ],
      "stateMutability": "view",
      "type": "function"
    },
    {
      "inputs": [
        {
          "internalType": "address",
          "name": "tokenAddress",
          "type": "address"
        }
      ],
      "name": "isBrandToken",
      "outputs": [
        {
          "internalType": "bool",
          "name": "isValid",
          "type": "bool"
        }
      ],
      "stateMutability": "view",
      "type": "function"
    },
    {
      "inputs": [],
      "name": "pause",
      "outputs": [],
      "stateMutability": "nonpayable",
      "type": "function"
    },
    {
      "inputs": [],
      "name": "paused",
      "outputs": [
        {
          "internalType": "bool",
          "name": "",
          "type": "bool"
        }
      ],
      "stateMutability": "view",
      "type": "function"
    },
    {
      "inputs": [
        {
          "internalType": "address",
          "name": "tokenAddress",
          "type": "address"
        },
        {
          "internalType": "address",
          "name": "brandWallet",
          "type": "address"
        }
      ],
      "name": "registerBrandToken",
      "outputs": [],
      "stateMutability": "nonpayable",
      "type": "function"
    },
    {
      "inputs": [
        {
          "internalType": "bytes32",
          "name": "role",
          "type": "bytes32"
        },
        {
          "internalType": "address",
          "name": "callerConfirmation",
          "type": "address"
        }
      ],
      "name": "renounceRole",
      "outputs": [],
      "stateMutability": "nonpayable",
      "type": "function"
    },
    {
      "inputs": [
        {
          "internalType": "bytes32",
          "name": "role",
          "type": "bytes32"
        },
        {
          "internalType": "address",
          "name": "account",
          "type": "address"
        }
      ],
      "name": "revokeRole",
      "outputs": [],
      "stateMutability": "nonpayable",
      "type": "function"
    },
    {
      "inputs": [
        {
          "internalType": "bytes4",
          "name": "interfaceId",
          "type": "bytes4"
        }
      ],
      "name": "supportsInterface",
      "outputs": [
        {
          "internalType": "bool",
          "name": "",
          "type": "bool"
        }
      ],
      "stateMutability": "view",
      "type": "function"
    },
    {
      "inputs": [],
      "name": "unpause",
      "outputs": [],
      "stateMutability": "nonpayable",
      "type": "function"
    }
  ],
  "bytecode": "0x6080346100e057601f612c4938819003918201601f19168301916001600160401b038311848410176100e5578084926020946040528339810103126100e057516001600160a01b0381168082036100e057156100825780610062610072926100fb565b5061006c81610177565b5061020f565b5060405161292190816102a88239f35b60405162461bcd60e51b815260206004820152603060248201527f476f6d476f6d546f6b656e466163746f72793a2061646d696e2063616e6e6f7460448201526f206265207a65726f206164647265737360801b6064820152608490fd5b600080fd5b634e487b7160e01b600052604160045260246000fd5b6001600160a01b0381166000908152600080516020612c29833981519152602052604090205460ff16610171576001600160a01b03166000818152600080516020612c2983398151915260205260408120805460ff19166001179055339190600080516020612bc98339815191528180a4600190565b50600090565b6001600160a01b0381166000908152600080516020612c09833981519152602052604090205460ff16610171576001600160a01b03166000818152600080516020612c0983398151915260205260408120805460ff191660011790553391907f47f77047616880e37bcbbdd9286c33c9168e9c2e1a65e8473c916ac5028b83ba90600080516020612bc98339815191529080a4600190565b6001600160a01b0381166000908152600080516020612be9833981519152602052604090205460ff16610171576001600160a01b03166000818152600080516020612be983398151915260205260408120805460ff191660011790553391907f65d7a28e3265b37a6474929f336521b332c1681b933f6cb9f3376673440d862a90600080516020612bc98339815191529080a460019056fe608080604052600436101561001357600080fd5b60003560e01c90816301ffc9a714610a895750806323be375b14610a45578063248a9ca314610a105780632f2ff15d146109d057806336568abe1461098a5780633f4ba83a146109215780634e4b54ce146106645780635c975abb146106415780635d58af041461062357806373e74fcb146105425780637d5264a6146105005780638456cb59146104a757806391d148541461045a578063a217fddf1461043e578063a84dc0f9146101f4578063c8f68b90146101b2578063d547741f1461016b578063da561f45146101305763e63ab1e9146100f057600080fd5b3461012b57600036600319011261012b5760206040517f65d7a28e3265b37a6474929f336521b332c1681b933f6cb9f3376673440d862a8152f35b600080fd5b3461012b57600036600319011261012b5760206040517f47f77047616880e37bcbbdd9286c33c9168e9c2e1a65e8473c916ac5028b83ba8152f35b3461012b57604036600319011261012b576101b060043561018a610af2565b906101ab6101a682600052600060205260016040600020015490565b610db7565b610e7d565b005b3461012b57602036600319011261012b576001600160a01b036101d3610adc565b166000526002602052602060018060a01b0360406000205416604051908152f35b3461012b57606036600319011261012b5760043567ffffffffffffffff811161012b57610225903690600401610b67565b60243567ffffffffffffffff811161012b57610245903690600401610b67565b906044356001600160a01b03811680820361012b57610262610d45565b61026a610eff565b610275811515610bbe565b8251156103e857835115610390576000818152600260205260409020546102a5906001600160a01b031615610c30565b6040516118c480820182811067ffffffffffffffff82111761037a5782916110288339608081526102ea6102dc6080830188610c92565b828103602084015288610c92565b9084604082015260603391015203906000f0801561036e57610356610342946103636020977fc3c3c1e7f1859d37d388750c27cef9a29db9e1493a0a107dcdb55b646cf1d1809460018060a01b031697888098610f1c565b604051938493604085526040850190610c92565b908382038a850152610c92565b0390a3604051908152f35b6040513d6000823e3d90fd5b634e487b7160e01b600052604160045260246000fd5b60405162461bcd60e51b815260206004820152602a60248201527f476f6d476f6d546f6b656e466163746f72793a2073796d626f6c2063616e6e6f6044820152697420626520656d70747960b01b6064820152608490fd5b60405162461bcd60e51b815260206004820152602860248201527f476f6d476f6d546f6b656e466163746f72793a206e616d652063616e6e6f7420604482015267626520656d70747960c01b6064820152608490fd5b3461012b57600036600319011261012b57602060405160008152f35b3461012b57604036600319011261012b57610473610af2565b600435600052600060205260406000209060018060a01b0316600052602052602060ff604060002054166040519015158152f35b3461012b57600036600319011261012b576104c0610cd3565b6104c8610eff565b600160ff19815416176001557f62e78cea01bee320cd4e420270b5ea74000d11b0c9f74754ebdbfc544b05a2586020604051338152a1005b3461012b57602036600319011261012b576001600160a01b03610521610adc565b166000526003602052602060018060a01b0360406000205416604051908152f35b3461012b57600036600319011261012b576040516004548082528160208101600460005260206000209260005b81811061060157505061058492500382610b45565b604051906005548083526020830190600560005260206000209060005b8181106105e2576105d0856105de886105bc81890382610b45565b604051938493604085526040850190610b08565b908382036020850152610b08565b0390f35b82546001600160a01b03168452602090930192600192830192016105a1565b84546001600160a01b031683526001948501948694506020909301920161056f565b3461012b57600036600319011261012b576020600454604051908152f35b3461012b57600036600319011261012b57602060ff600154166040519015158152f35b3461012b57604036600319011261012b5761067d610adc565b610685610af2565b9061068e610d45565b610696610eff565b6001600160a01b0381169182156108b6576001600160a01b038116916106bd831515610bbe565b6000838152600260205260409020546106df906001600160a01b031615610c30565b6000848152600360205260409020546001600160a01b031661085c5760405163b4b41a6560e01b8152602081600481885afa8091600091610813575b509061077c5760405162461bcd60e51b815260206004820152602d60248201527f476f6d476f6d546f6b656e466163746f72793a20696e76616c6964206272616e60448201526c32103837b4b73a103a37b5b2b760991b6064820152608490fd5b6001600160a01b03168390036107bc5761079591610f1c565b7ff1f16ef7d842ec9539eefce427bab99f7950f541f288a467024ee9f4e2f11a7a600080a3005b60405162461bcd60e51b815260206004820152602960248201527f476f6d476f6d546f6b656e466163746f72793a206272616e642077616c6c6574604482015268040dad2e6dac2e8c6d60bb1b6064820152608490fd5b6020813d602011610854575b8161082c60209383610b45565b810103126108505751906001600160a01b038216820361084d57508661071b565b80fd5b5080fd5b3d915061081f565b60405162461bcd60e51b815260206004820152602c60248201527f476f6d476f6d546f6b656e466163746f72793a20746f6b656e20616c7265616460448201526b1e481c9959da5cdd195c995960a21b6064820152608490fd5b60405162461bcd60e51b815260206004820152603860248201527f476f6d476f6d546f6b656e466163746f72793a20746f6b656e2061646472657360448201527f732063616e6e6f74206265207a65726f206164647265737300000000000000006064820152608490fd5b3461012b57600036600319011261012b5761093a610cd3565b60015460ff8116156109795760ff19166001557f5db9ee0a495bf2e6ff9c91a7834c1ba4fdd244a5e8aa4e537bd38aeae4b073aa6020604051338152a1005b638dfc202b60e01b60005260046000fd5b3461012b57604036600319011261012b576109a3610af2565b336001600160a01b038216036109bf576101b090600435610e7d565b63334bd91960e11b60005260046000fd5b3461012b57604036600319011261012b576101b06004356109ef610af2565b90610a0b6101a682600052600060205260016040600020015490565b610df2565b3461012b57602036600319011261012b576020610a3d600435600052600060205260016040600020015490565b604051908152f35b3461012b57602036600319011261012b576001600160a01b03610a66610adc565b166000526003602052602060018060a01b03604060002054161515604051908152f35b3461012b57602036600319011261012b576004359063ffffffff60e01b821680920361012b57602091637965db0b60e01b8114908115610acb575b5015158152f35b6301ffc9a760e01b14905083610ac4565b600435906001600160a01b038216820361012b57565b602435906001600160a01b038216820361012b57565b906020808351928381520192019060005b818110610b265750505090565b82516001600160a01b0316845260209384019390920191600101610b19565b90601f8019910116810190811067ffffffffffffffff82111761037a57604052565b81601f8201121561012b5780359067ffffffffffffffff821161037a5760405192610b9c601f8401601f191660200185610b45565b8284526020838301011161012b57816000926020809301838601378301015290565b15610bc557565b60405162461bcd60e51b815260206004820152603760248201527f476f6d476f6d546f6b656e466163746f72793a206272616e642077616c6c657460448201527f2063616e6e6f74206265207a65726f20616464726573730000000000000000006064820152608490fd5b15610c3757565b60405162461bcd60e51b815260206004820152602d60248201527f476f6d476f6d546f6b656e466163746f72793a206272616e6420616c7265616460448201526c3c903430b99030903a37b5b2b760991b6064820152608490fd5b919082519283825260005b848110610cbe575050826000602080949584010152601f8019910116010190565b80602080928401015182828601015201610c9d565b3360009081527ff7c9542c591017a21c74b6f3fab6263c7952fc0aaf9db4c22a2a04ddc7f8674f602052604090205460ff1615610d0c57565b63e2517d3f60e01b600052336004527f65d7a28e3265b37a6474929f336521b332c1681b933f6cb9f3376673440d862a60245260446000fd5b3360009081527fc67249d7b0cd6d1879e017a1bbdaf59543d066946f923b7f64ad0418aee68061602052604090205460ff1615610d7e57565b63e2517d3f60e01b600052336004527f47f77047616880e37bcbbdd9286c33c9168e9c2e1a65e8473c916ac5028b83ba60245260446000fd5b60008181526020818152604080832033845290915290205460ff1615610dda5750565b63e2517d3f60e01b6000523360045260245260446000fd5b6000818152602081815260408083206001600160a01b038616845290915290205460ff16610e76576000818152602081815260408083206001600160a01b0395909516808452949091528120805460ff19166001179055339291907f2f8788117e7eff1d82e926ec794901d17c78024a50270940304540a733656f0d9080a4600190565b5050600090565b6000818152602081815260408083206001600160a01b038616845290915290205460ff1615610e76576000818152602081815260408083206001600160a01b0395909516808452949091528120805460ff19169055339291907ff6391f5c32d9c69d2a47ea670b442974b53935d1edc7fd64eb21e047a839171b9080a4600190565b60ff60015416610f0b57565b63d93c066560e01b60005260046000fd5b6001600160a01b03908116600081815260026020908152604080832080546001600160a01b03199081169790961696871790558583526003909152902080549092168117909155600454600160401b81101561037a5760018101806004558110156110115760046000527f8a35acfbc15ff81a39ae7d344fd709f28e8600b4aa8c65c6b64bfe7fe36bd19b0180546001600160a01b0319169091179055600554600160401b81101561037a5760018101806005558110156110115760056000527f036b6384b5eca791c62761152d0c79bb0604c104a5fb6f4eb0703f3154bb3db00180546001600160a01b0319169091179055565b634e487b7160e01b600052603260045260246000fdfe608060405234610471576118c48038038061001981610476565b9283398101906080818303126104715780516001600160401b038111610471578261004591830161049b565b602082015190926001600160401b0382116104715761006591830161049b565b9061007e606061007760408401610506565b9201610506565b83516001600160401b03811161037a57600354600181811c91168015610467575b602082101461035a57601f8111610402575b50602094601f821160011461039b57948192939495600092610390575b50508160011b916000199060031b1c1916176003555b82516001600160401b03811161037a57600454600181811c91168015610370575b602082101461035a57601f81116102f5575b506020601f821160011461028e5781929394600092610283575b50508160011b916000199060031b1c1916176004555b6001600160a01b03821615610218576001600160a01b038116156101bd5760068054610100600160a81b031916600884901b610100600160a81b03161790556101ad9161019d906101978361051a565b50610596565b506101a781610596565b5061062e565b5060405161117d90816106c78239f35b60405162461bcd60e51b815260206004820152602d60248201527f4272616e64506f696e74546f6b656e3a2061646d696e2063616e6e6f7420626560448201526c207a65726f206164647265737360981b6064820152608490fd5b60405162461bcd60e51b815260206004820152603460248201527f4272616e64506f696e74546f6b656e3a206272616e642077616c6c657420636160448201527f6e6e6f74206265207a65726f20616464726573730000000000000000000000006064820152608490fd5b015190503880610131565b601f198216906004600052806000209160005b8181106102dd575095836001959697106102c4575b505050811b01600455610147565b015160001960f88460031b161c191690553880806102b6565b9192602060018192868b0151815501940192016102a1565b60046000527f8a35acfbc15ff81a39ae7d344fd709f28e8600b4aa8c65c6b64bfe7fe36bd19b601f830160051c81019160208410610350575b601f0160051c01905b8181106103445750610117565b60008155600101610337565b909150819061032e565b634e487b7160e01b600052602260045260246000fd5b90607f1690610105565b634e487b7160e01b600052604160045260246000fd5b0151905038806100ce565b601f198216956003600052806000209160005b8881106103ea575083600195969798106103d1575b505050811b016003556100e4565b015160001960f88460031b161c191690553880806103c3565b919260206001819286850151815501940192016103ae565b60036000527fc2575a0e9e593c00f959f8c92f12db2869c3395a3b0502d05e2516446f71f85b601f830160051c8101916020841061045d575b601f0160051c01905b81811061045157506100b1565b60008155600101610444565b909150819061043b565b90607f169061009f565b600080fd5b6040519190601f01601f191682016001600160401b0381118382101761037a57604052565b81601f82011215610471578051906001600160401b03821161037a576104ca601f8301601f1916602001610476565b92828452602083830101116104715760005b8281106104f157505060206000918301015290565b806020809284010151828287010152016104dc565b51906001600160a01b038216820361047157565b6001600160a01b0381166000908152600080516020611884833981519152602052604090205460ff16610590576001600160a01b0316600081815260008051602061188483398151915260205260408120805460ff191660011790553391906000805160206118448339815191528180a4600190565b50600090565b6001600160a01b0381166000908152600080516020611864833981519152602052604090205460ff16610590576001600160a01b0316600081815260008051602061186483398151915260205260408120805460ff191660011790553391907f9f2df0fed2c77648de5860a4cc508cd0818c85b8b8a1ab4ceeef8d981c8956a6906000805160206118448339815191529080a4600190565b6001600160a01b03811660009081526000805160206118a4833981519152602052604090205460ff16610590576001600160a01b031660008181526000805160206118a483398151915260205260408120805460ff191660011790553391907f65d7a28e3265b37a6474929f336521b332c1681b933f6cb9f3376673440d862a906000805160206118448339815191529080a460019056fe608080604052600436101561001357600080fd5b60003560e01c90816301ffc9a714610c475750806306fdde0314610b71578063095ea7b314610abf578063099db01714610a5d57806318160ddd14610a3f57806323b872dd146109ff578063248a9ca3146109ca5780632f2ff15d1461098a578063313ce5671461096e57806336568abe146109285780633f4ba83a146108bf57806340c10f191461071157806342966c681461064a5780635c975abb1461062757806370a08231146105ed57806379cc67901461049a5780638456cb591461044057806391d14854146103f357806395d89b41146102d2578063a217fddf146102b6578063a9059cbb1461027d578063b4b41a6514610250578063d539139314610215578063d547741f146101ce578063dd62ed3e1461017d5763e63ab1e91461013d57600080fd5b346101785760003660031901126101785760206040517f65d7a28e3265b37a6474929f336521b332c1681b933f6cb9f3376673440d862a8152f35b600080fd5b3461017857604036600319011261017857610196610ce3565b61019e610cf9565b6001600160a01b039182166000908152600160209081526040808320949093168252928352819020549051908152f35b34610178576040366003190112610178576102136004356101ed610cf9565b9061020e61020982600052600560205260016040600020015490565b610e04565b610ed0565b005b346101785760003660031901126101785760206040517f9f2df0fed2c77648de5860a4cc508cd0818c85b8b8a1ab4ceeef8d981c8956a68152f35b346101785760003660031901126101785760065460405160089190911c6001600160a01b03168152602090f35b34610178576040366003190112610178576102ab610299610ce3565b6102a1610d75565b6024359033611098565b602060405160018152f35b3461017857600036600319011261017857602060405160008152f35b346101785760003660031901126101785760405160006004548060011c906001811680156103e9575b6020831081146103d5578285529081156103b95750600114610362575b50819003601f01601f191681019067ffffffffffffffff82118183101761034c5761034882918260405282610c9a565b0390f35b634e487b7160e01b600052604160045260246000fd5b905060046000527f8a35acfbc15ff81a39ae7d344fd709f28e8600b4aa8c65c6b64bfe7fe36bd19b6000905b8282106103a357506020915082010182610318565b600181602092548385880101520191019061038e565b90506020925060ff191682840152151560051b82010182610318565b634e487b7160e01b84526022600452602484fd5b91607f16916102fb565b346101785760403660031901126101785761040c610cf9565b600435600052600560205260406000209060018060a01b0316600052602052602060ff604060002054166040519015158152f35b3461017857600036600319011261017857610459610d92565b610461610d75565b600160ff1960065416176006557f62e78cea01bee320cd4e420270b5ea74000d11b0c9f74754ebdbfc544b05a2586020604051338152a1005b34610178576040366003190112610178576104b3610ce3565b6024356104be610d75565b6001600160a01b038216918215610591576104da821515610d0f565b6000838152600160209081526040808320338452909152902054821161053c57816105338160209361052e7f696de425f79f4a40bc6d2122ca50507f0efbeabbff86a84871b7196ab8ea8df7963383610fed565b610f56565b604051908152a2005b60405162461bcd60e51b815260206004820152602760248201527f4272616e64506f696e74546f6b656e3a20696e73756666696369656e7420616c6044820152666c6f77616e636560c81b6064820152608490fd5b60405162461bcd60e51b815260206004820152602e60248201527f4272616e64506f696e74546f6b656e3a2063616e6e6f74206275726e2066726f60448201526d6d207a65726f206164647265737360901b6064820152608490fd5b34610178576020366003190112610178576001600160a01b0361060e610ce3565b1660005260006020526020604060002054604051908152f35b3461017857600036600319011261017857602060ff600654166040519015158152f35b3461017857602036600319011261017857600435610666610d75565b610671811515610d0f565b33600052600060205280604060002054106106be576106908133610f56565b6040519081527f696de425f79f4a40bc6d2122ca50507f0efbeabbff86a84871b7196ab8ea8df760203392a2005b60405162461bcd60e51b815260206004820152602560248201527f4272616e64506f696e74546f6b656e3a20696e73756666696369656e742062616044820152646c616e636560d81b6064820152608490fd5b346101785760403660031901126101785761072a610ce3565b3360009081527f15a28d26fa1bf736cf7edc9922607171ccb09c3c73b808e7772a3013e068a5226020526040902054602435919060ff16156108865761076e610d75565b6001600160a01b0316801561082c57610788821515610d0f565b600091600254818101809111610818576002557f30385c845b448a36257a6a1716e6ad2e1bc2cbe333cde1e69fe849ad6511adfe90602090836108035780600254036002555b83857fddf252ad1be2c89b69c2b068fc378daa952ba7f163c4a11628f55a4df523b3ef84604051858152a3604051908152a280f35b838552848252604085208181540190556107ce565b634e487b7160e01b84526011600452602484fd5b60405162461bcd60e51b815260206004820152602c60248201527f4272616e64506f696e74546f6b656e3a2063616e6e6f74206d696e7420746f2060448201526b7a65726f206164647265737360a01b6064820152608490fd5b63e2517d3f60e01b600052336004527f9f2df0fed2c77648de5860a4cc508cd0818c85b8b8a1ab4ceeef8d981c8956a660245260446000fd5b34610178576000366003190112610178576108d8610d92565b60065460ff8116156109175760ff19166006557f5db9ee0a495bf2e6ff9c91a7834c1ba4fdd244a5e8aa4e537bd38aeae4b073aa6020604051338152a1005b638dfc202b60e01b60005260046000fd5b3461017857604036600319011261017857610941610cf9565b336001600160a01b0382160361095d5761021390600435610ed0565b63334bd91960e11b60005260046000fd5b3461017857600036600319011261017857602060405160128152f35b34610178576040366003190112610178576102136004356109a9610cf9565b906109c561020982600052600560205260016040600020015490565b610e41565b346101785760203660031901126101785760206109f7600435600052600560205260016040600020015490565b604051908152f35b34610178576060366003190112610178576102ab610a1b610ce3565b610a23610cf9565b60443591610a2f610d75565b610a3a833383610fed565b611098565b34610178576000366003190112610178576020600254604051908152f35b3461017857602036600319011261017857610a76610ce3565b6001600160a01b031660009081527f15a28d26fa1bf736cf7edc9922607171ccb09c3c73b808e7772a3013e068a522602090815260409182902054915160ff9092161515825290f35b3461017857604036600319011261017857610ad8610ce3565b602435903315610b5b576001600160a01b0316908115610b4557336000526001602052604060002082600052602052806040600020556040519081527f8c5be1e5ebec7d5bd14f71427d1e84f3dd0314c0f7b2291e5b200ac8c7c3b92560203392a3602060405160018152f35b634a1406b160e11b600052600060045260246000fd5b63e602df0560e01b600052600060045260246000fd5b346101785760003660031901126101785760405160006003548060011c90600181168015610c3d575b6020831081146103d5578285529081156103b95750600114610be65750819003601f01601f191681019067ffffffffffffffff82118183101761034c5761034882918260405282610c9a565b905060036000527fc2575a0e9e593c00f959f8c92f12db2869c3395a3b0502d05e2516446f71f85b6000905b828210610c2757506020915082010182610318565b6001816020925483858801015201910190610c12565b91607f1691610b9a565b34610178576020366003190112610178576004359063ffffffff60e01b821680920361017857602091637965db0b60e01b8114908115610c89575b5015158152f35b6301ffc9a760e01b14905083610c82565b91909160208152825180602083015260005b818110610ccd575060409293506000838284010152601f8019910116010190565b8060208092870101516040828601015201610cac565b600435906001600160a01b038216820361017857565b602435906001600160a01b038216820361017857565b15610d1657565b60405162461bcd60e51b815260206004820152603160248201527f4272616e64506f696e74546f6b656e3a20616d6f756e74206d7573742062652060448201527067726561746572207468616e207a65726f60781b6064820152608490fd5b60ff60065416610d8157565b63d93c066560e01b60005260046000fd5b3360009081527f99f2891db7a8db76249871a02b43b68c0bb8f22ef8a3bc1034ae9375ef6b7c3c602052604090205460ff1615610dcb57565b63e2517d3f60e01b600052336004527f65d7a28e3265b37a6474929f336521b332c1681b933f6cb9f3376673440d862a60245260446000fd5b600081815260056020908152604080832033845290915290205460ff1615610e295750565b63e2517d3f60e01b6000523360045260245260446000fd5b60008181526005602090815260408083206001600160a01b038616845290915290205460ff16610ec95760008181526005602090815260408083206001600160a01b0395909516808452949091528120805460ff19166001179055339291907f2f8788117e7eff1d82e926ec794901d17c78024a50270940304540a733656f0d9080a4600190565b5050600090565b60008181526005602090815260408083206001600160a01b038616845290915290205460ff1615610ec95760008181526005602090815260408083206001600160a01b0395909516808452949091528120805460ff19169055339291907ff6391f5c32d9c69d2a47ea670b442974b53935d1edc7fd64eb21e047a839171b9080a4600190565b6001600160a01b03168015610fd757600091818352826020526040832054818110610fbe57817fddf252ad1be2c89b69c2b068fc378daa952ba7f163c4a11628f55a4df523b3ef926020928587528684520360408620558060025403600255604051908152a3565b6064939263391434e360e21b8452600452602452604452fd5b634b637e8f60e11b600052600060045260246000fd5b6001600160a01b039081166000818152600160209081526040808320948616835293905291909120549291906000198410611029575b50505050565b828410611073578015610b5b576001600160a01b03821615610b4557600052600160205260406000209060018060a01b031660005260205260406000209103905538808080611023565b508290637dc7a0d960e11b60005260018060a01b031660045260245260445260646000fd5b6001600160a01b0316908115610fd7576001600160a01b03169182156111315760008281528060205260408120548281106111175791604082827fddf252ad1be2c89b69c2b068fc378daa952ba7f163c4a11628f55a4df523b3ef958760209652828652038282205586815280845220818154019055604051908152a3565b916064928463391434e360e21b8452600452602452604452fd5b63ec442f0560e01b600052600060045260246000fdfea26469706673582212200de3fa758ed13a9dea3b46968169a6d38457dba2f0e54c8f21952f70d67d2bbf64736f6c634300081c00332f8788117e7eff1d82e926ec794901d17c78024a50270940304540a733656f0d15a28d26fa1bf736cf7edc9922607171ccb09c3c73b808e7772a3013e068a52205b8ccbb9d4d8fb16ea74ce3c29a41f1b461fbdaff4714a0d9a8eb05499746bc99f2891db7a8db76249871a02b43b68c0bb8f22ef8a3bc1034ae9375ef6b7c3ca26469706673582212209e9dc03c7c79346130e2a374189ae6426fc940fae7b06ef902bf40c9d4aacb4a64736f6c634300081c00332f8788117e7eff1d82e926ec794901d17c78024a50270940304540a733656f0df7c9542c591017a21c74b6f3fab6263c7952fc0aaf9db4c22a2a04ddc7f8674fc67249d7b0cd6d1879e017a1bbdaf59543d066946f923b7f64ad0418aee68061ad3228b676f7d3cd4284a5443f17f1962b36e491b30a40b2405849e597ba5fb5",
  "linkReferences": {},
  "deployedLinkReferences": {}
}