{
    "_format": "hh-sol-artifact-1",
    "contractName": "MissionManager",
    "sourceName": "contracts/core/MissionManager.sol",
    "abi": [
        {
            "inputs": [
                {
                    "internalType": "address",
                    "name": "admin",
                    "type": "address"
                }
            ],
            "stateMutability": "nonpayable",
            "type": "constructor"
        },
        {
            "inputs": [],
            "name": "AccessControlBadConfirmation",
            "type": "error"
        },
        {
            "inputs": [
                {
                    "internalType": "address",
                    "name": "account",
                    "type": "address"
                },
                {
                    "internalType": "bytes32",
                    "name": "neededRole",
                    "type": "bytes32"
                }
            ],
            "name": "AccessControlUnauthorizedAccount",
            "type": "error"
        },
        {
            "inputs": [],
            "name": "EnforcedPause",
            "type": "error"
        },
        {
            "inputs": [],
            "name": "ExpectedPause",
            "type": "error"
        },
        {
            "inputs": [],
            "name": "ReentrancyGuardReentrantCall",
            "type": "error"
        },
        {
            "anonymous": false,
            "inputs": [
                {
                    "indexed": true,
                    "internalType": "string",
                    "name": "missionId",
                    "type": "string"
                },
                {
                    "indexed": true,
                    "internalType": "address",
                    "name": "user",
                    "type": "address"
                },
                {
                    "indexed": true,
                    "internalType": "address",
                    "name": "rewardToken",
                    "type": "address"
                },
                {
                    "indexed": false,
                    "internalType": "uint256",
                    "name": "rewardAmount",
                    "type": "uint256"
                },
                {
                    "indexed": false,
                    "internalType": "uint256",
                    "name": "timestamp",
                    "type": "uint256"
                }
            ],
            "name": "MissionCompleted",
            "type": "event"
        },
        {
            "anonymous": false,
            "inputs": [
                {
                    "indexed": true,
                    "internalType": "string",
                    "name": "missionId",
                    "type": "string"
                },
                {
                    "indexed": true,
                    "internalType": "address",
                    "name": "brandWallet",
                    "type": "address"
                },
                {
                    "indexed": false,
                    "internalType": "string",
                    "name": "title",
                    "type": "string"
                },
                {
                    "indexed": false,
                    "internalType": "enum MissionManager.MissionType",
                    "name": "missionType",
                    "type": "uint8"
                },
                {
                    "indexed": false,
                    "internalType": "enum MissionManager.RewardType",
                    "name": "rewardType",
                    "type": "uint8"
                },
                {
                    "indexed": false,
                    "internalType": "uint256",
                    "name": "rewardAmount",
                    "type": "uint256"
                }
            ],
            "name": "MissionCreated",
            "type": "event"
        },
        {
            "anonymous": false,
            "inputs": [
                {
                    "indexed": true,
                    "internalType": "string",
                    "name": "missionId",
                    "type": "string"
                },
                {
                    "indexed": true,
                    "internalType": "address",
                    "name": "user",
                    "type": "address"
                },
                {
                    "indexed": false,
                    "internalType": "uint256",
                    "name": "timestamp",
                    "type": "uint256"
                }
            ],
            "name": "MissionJoined",
            "type": "event"
        },
        {
            "anonymous": false,
            "inputs": [
                {
                    "indexed": true,
                    "internalType": "string",
                    "name": "missionId",
                    "type": "string"
                },
                {
                    "indexed": false,
                    "internalType": "enum MissionManager.MissionStatus",
                    "name": "oldStatus",
                    "type": "uint8"
                },
                {
                    "indexed": false,
                    "internalType": "enum MissionManager.MissionStatus",
                    "name": "newStatus",
                    "type": "uint8"
                }
            ],
            "name": "MissionStatusUpdated",
            "type": "event"
        },
        {
            "anonymous": false,
            "inputs": [
                {
                    "indexed": false,
                    "internalType": "address",
                    "name": "account",
                    "type": "address"
                }
            ],
            "name": "Paused",
            "type": "event"
        },
        {
            "anonymous": false,
            "inputs": [
                {
                    "indexed": true,
                    "internalType": "bytes32",
                    "name": "role",
                    "type": "bytes32"
                },
                {
                    "indexed": true,
                    "internalType": "bytes32",
                    "name": "previousAdminRole",
                    "type": "bytes32"
                },
                {
                    "indexed": true,
                    "internalType": "bytes32",
                    "name": "newAdminRole",
                    "type": "bytes32"
                }
            ],
            "name": "RoleAdminChanged",
            "type": "event"
        },
        {
            "anonymous": false,
            "inputs": [
                {
                    "indexed": true,
                    "internalType": "bytes32",
                    "name": "role",
                    "type": "bytes32"
                },
                {
                    "indexed": true,
                    "internalType": "address",
                    "name": "account",
                    "type": "address"
                },
                {
                    "indexed": true,
                    "internalType": "address",
                    "name": "sender",
                    "type": "address"
                }
            ],
            "name": "RoleGranted",
            "type": "event"
        },
        {
            "anonymous": false,
            "inputs": [
                {
                    "indexed": true,
                    "internalType": "bytes32",
                    "name": "role",
                    "type": "bytes32"
                },
                {
                    "indexed": true,
                    "internalType": "address",
                    "name": "account",
                    "type": "address"
                },
                {
                    "indexed": true,
                    "internalType": "address",
                    "name": "sender",
                    "type": "address"
                }
            ],
            "name": "RoleRevoked",
            "type": "event"
        },
        {
            "anonymous": false,
            "inputs": [
                {
                    "indexed": false,
                    "internalType": "address",
                    "name": "account",
                    "type": "address"
                }
            ],
            "name": "Unpaused",
            "type": "event"
        },
        {
            "inputs": [],
            "name": "BRAND_MANAGER_ROLE",
            "outputs": [
                {
                    "internalType": "bytes32",
                    "name": "",
                    "type": "bytes32"
                }
            ],
            "stateMutability": "view",
            "type": "function"
        },
        {
            "inputs": [],
            "name": "DEFAULT_ADMIN_ROLE",
            "outputs": [
                {
                    "internalType": "bytes32",
                    "name": "",
                    "type": "bytes32"
                }
            ],
            "stateMutability": "view",
            "type": "function"
        },
        {
            "inputs": [],
            "name": "ORACLE_ROLE",
            "outputs": [
                {
                    "internalType": "bytes32",
                    "name": "",
                    "type": "bytes32"
                }
            ],
            "stateMutability": "view",
            "type": "function"
        },
        {
            "inputs": [],
            "name": "PAUSER_ROLE",
            "outputs": [
                {
                    "internalType": "bytes32",
                    "name": "",
                    "type": "bytes32"
                }
            ],
            "stateMutability": "view",
            "type": "function"
        },
        {
            "inputs": [
                {
                    "internalType": "string",
                    "name": "missionId",
                    "type": "string"
                },
                {
                    "internalType": "address",
                    "name": "user",
                    "type": "address"
                },
                {
                    "internalType": "bytes",
                    "name": "proof",
                    "type": "bytes"
                }
            ],
            "name": "completeMission",
            "outputs": [],
            "stateMutability": "nonpayable",
            "type": "function"
        },
        {
            "inputs": [
                {
                    "internalType": "string",
                    "name": "missionId",
                    "type": "string"
                },
                {
                    "internalType": "string",
                    "name": "title",
                    "type": "string"
                },
                {
                    "internalType": "string",
                    "name": "description",
                    "type": "string"
                },
                {
                    "internalType": "address",
                    "name": "brandWallet",
                    "type": "address"
                },
                {
                    "internalType": "enum MissionManager.MissionType",
                    "name": "missionType",
                    "type": "uint8"
                },
                {
                    "internalType": "enum MissionManager.RewardType",
                    "name": "rewardType",
                    "type": "uint8"
                },
                {
                    "internalType": "address",
                    "name": "rewardTokenAddress",
                    "type": "address"
                },
                {
                    "internalType": "uint256",
                    "name": "rewardAmount",
                    "type": "uint256"
                },
                {
                    "internalType": "string",
                    "name": "nftMetadataURI",
                    "type": "string"
                },
                {
                    "internalType": "uint256",
                    "name": "startTime",
                    "type": "uint256"
                },
                {
                    "internalType": "uint256",
                    "name": "endTime",
                    "type": "uint256"
                },
                {
                    "internalType": "uint256",
                    "name": "maxCompletions",
                    "type": "uint256"
                },
                {
                    "internalType": "bytes",
                    "name": "missionData",
                    "type": "bytes"
                }
            ],
            "name": "createMission",
            "outputs": [],
            "stateMutability": "nonpayable",
            "type": "function"
        },
        {
            "inputs": [],
            "name": "getActiveMissions",
            "outputs": [
                {
                    "internalType": "string[]",
                    "name": "",
                    "type": "string[]"
                }
            ],
            "stateMutability": "view",
            "type": "function"
        },
        {
            "inputs": [],
            "name": "getAllMissionIds",
            "outputs": [
                {
                    "internalType": "string[]",
                    "name": "",
                    "type": "string[]"
                }
            ],
            "stateMutability": "view",
            "type": "function"
        },
        {
            "inputs": [
                {
                    "internalType": "address",
                    "name": "brandWallet",
                    "type": "address"
                }
            ],
            "name": "getBrandMissions",
            "outputs": [
                {
                    "internalType": "string[]",
                    "name": "",
                    "type": "string[]"
                }
            ],
            "stateMutability": "view",
            "type": "function"
        },
        {
            "inputs": [
                {
                    "internalType": "string",
                    "name": "missionId",
                    "type": "string"
                }
            ],
            "name": "getMission",
            "outputs": [
                {
                    "components": [
                        {
                            "internalType": "string",
                            "name": "missionId",
                            "type": "string"
                        },
                        {
                            "internalType": "string",
                            "name": "title",
                            "type": "string"
                        },
                        {
                            "internalType": "string",
                            "name": "description",
                            "type": "string"
                        },
                        {
                            "internalType": "address",
                            "name": "brandWallet",
                            "type": "address"
                        },
                        {
                            "internalType": "enum MissionManager.MissionType",
                            "name": "missionType",
                            "type": "uint8"
                        },
                        {
                            "internalType": "enum MissionManager.RewardType",
                            "name": "rewardType",
                            "type": "uint8"
                        },
                        {
                            "internalType": "address",
                            "name": "rewardTokenAddress",
                            "type": "address"
                        },
                        {
                            "internalType": "uint256",
                            "name": "rewardAmount",
                            "type": "uint256"
                        },
                        {
                            "internalType": "string",
                            "name": "nftMetadataURI",
                            "type": "string"
                        },
                        {
                            "internalType": "uint256",
                            "name": "startTime",
                            "type": "uint256"
                        },
                        {
                            "internalType": "uint256",
                            "name": "endTime",
                            "type": "uint256"
                        },
                        {
                            "internalType": "uint256",
                            "name": "maxCompletions",
                            "type": "uint256"
                        },
                        {
                            "internalType": "uint256",
                            "name": "currentCompletions",
                            "type": "uint256"
                        },
                        {
                            "internalType": "enum MissionManager.MissionStatus",
                            "name": "status",
                            "type": "uint8"
                        },
                        {
                            "internalType": "bytes",
                            "name": "missionData",
                            "type": "bytes"
                        },
                        {
                            "internalType": "bool",
                            "name": "exists",
                            "type": "bool"
                        }
                    ],
                    "internalType": "struct MissionManager.Mission",
                    "name": "",
                    "type": "tuple"
                }
            ],
            "stateMutability": "view",
            "type": "function"
        },
        {
            "inputs": [
                {
                    "internalType": "bytes32",
                    "name": "role",
                    "type": "bytes32"
                }
            ],
            "name": "getRoleAdmin",
            "outputs": [
                {
                    "internalType": "bytes32",
                    "name": "",
                    "type": "bytes32"
                }
            ],
            "stateMutability": "view",
            "type": "function"
        },
        {
            "inputs": [
                {
                    "internalType": "string",
                    "name": "missionId",
                    "type": "string"
                },
                {
                    "internalType": "address",
                    "name": "user",
                    "type": "address"
                }
            ],
            "name": "getUserMissionProgress",
            "outputs": [
                {
                    "components": [
                        {
                            "internalType": "bool",
                            "name": "joined",
                            "type": "bool"
                        },
                        {
                            "internalType": "bool",
                            "name": "completed",
                            "type": "bool"
                        },
                        {
                            "internalType": "uint256",
                            "name": "joinedAt",
                            "type": "uint256"
                        },
                        {
                            "internalType": "uint256",
                            "name": "completedAt",
                            "type": "uint256"
                        },
                        {
                            "internalType": "bytes",
                            "name": "progressData",
                            "type": "bytes"
                        }
                    ],
                    "internalType": "struct MissionManager.UserMissionProgress",
                    "name": "",
                    "type": "tuple"
                }
            ],
            "stateMutability": "view",
            "type": "function"
        },
        {
            "inputs": [
                {
                    "internalType": "bytes32",
                    "name": "role",
                    "type": "bytes32"
                },
                {
                    "internalType": "address",
                    "name": "account",
                    "type": "address"
                }
            ],
            "name": "grantRole",
            "outputs": [],
            "stateMutability": "nonpayable",
            "type": "function"
        },
        {
            "inputs": [
                {
                    "internalType": "bytes32",
                    "name": "role",
                    "type": "bytes32"
                },
                {
                    "internalType": "address",
                    "name": "account",
                    "type": "address"
                }
            ],
            "name": "hasRole",
            "outputs": [
                {
                    "internalType": "bool",
                    "name": "",
                    "type": "bool"
                }
            ],
            "stateMutability": "view",
            "type": "function"
        },
        {
            "inputs": [
                {
                    "internalType": "string",
                    "name": "missionId",
                    "type": "string"
                }
            ],
            "name": "joinMission",
            "outputs": [],
            "stateMutability": "nonpayable",
            "type": "function"
        },
        {
            "inputs": [],
            "name": "pause",
            "outputs": [],
            "stateMutability": "nonpayable",
            "type": "function"
        },
        {
            "inputs": [],
            "name": "paused",
            "outputs": [
                {
                    "internalType": "bool",
                    "name": "",
                    "type": "bool"
                }
            ],
            "stateMutability": "view",
            "type": "function"
        },
        {
            "inputs": [
                {
                    "internalType": "bytes32",
                    "name": "role",
                    "type": "bytes32"
                },
                {
                    "internalType": "address",
                    "name": "callerConfirmation",
                    "type": "address"
                }
            ],
            "name": "renounceRole",
            "outputs": [],
            "stateMutability": "nonpayable",
            "type": "function"
        },
        {
            "inputs": [
                {
                    "internalType": "bytes32",
                    "name": "role",
                    "type": "bytes32"
                },
                {
                    "internalType": "address",
                    "name": "account",
                    "type": "address"
                }
            ],
            "name": "revokeRole",
            "outputs": [],
            "stateMutability": "nonpayable",
            "type": "function"
        },
        {
            "inputs": [
                {
                    "internalType": "bytes4",
                    "name": "interfaceId",
                    "type": "bytes4"
                }
            ],
            "name": "supportsInterface",
            "outputs": [
                {
                    "internalType": "bool",
                    "name": "",
                    "type": "bool"
                }
            ],
            "stateMutability": "view",
            "type": "function"
        },
        {
            "inputs": [],
            "name": "unpause",
            "outputs": [],
            "stateMutability": "nonpayable",
            "type": "function"
        },
        {
            "inputs": [
                {
                    "internalType": "string",
                    "name": "missionId",
                    "type": "string"
                },
                {
                    "internalType": "enum MissionManager.MissionStatus",
                    "name": "newStatus",
                    "type": "uint8"
                }
            ],
            "name": "updateMissionStatus",
            "outputs": [],
            "stateMutability": "nonpayable",
            "type": "function"
        }
    ],
    "bytecode": "0x6080346100eb57601f61287238819003918201601f19168301916001600160401b038311848410176100f0578084926020946040528339810103126100eb57516001600160a01b0381168082036100eb57600160025515610091578061006761008192610106565b5061007181610182565b5061007b8161021a565b506102b2565b50604051612487908161034b8239f35b60405162461bcd60e51b815260206004820152602c60248201527f4d697373696f6e4d616e616765723a2061646d696e2063616e6e6f742062652060448201526b7a65726f206164647265737360a01b6064820152608490fd5b600080fd5b634e487b7160e01b600052604160045260246000fd5b6001600160a01b0381166000908152600080516020612852833981519152602052604090205460ff1661017c576001600160a01b0316600081815260008051602061285283398151915260205260408120805460ff191660011790553391906000805160206127d28339815191528180a4600190565b50600090565b6001600160a01b0381166000908152600080516020612832833981519152602052604090205460ff1661017c576001600160a01b0316600081815260008051602061283283398151915260205260408120805460ff191660011790553391907f47f77047616880e37bcbbdd9286c33c9168e9c2e1a65e8473c916ac5028b83ba906000805160206127d28339815191529080a4600190565b6001600160a01b03811660009081526000805160206127f2833981519152602052604090205460ff1661017c576001600160a01b031660008181526000805160206127f283398151915260205260408120805460ff191660011790553391907f65d7a28e3265b37a6474929f336521b332c1681b933f6cb9f3376673440d862a906000805160206127d28339815191529080a4600190565b6001600160a01b0381166000908152600080516020612812833981519152602052604090205460ff1661017c576001600160a01b0316600081815260008051602061281283398151915260205260408120805460ff191660011790553391907f68e79a7bf1e0bc45d0a330c573bc367f9cf464fd326078812f301165fbda4ef1906000805160206127d28339815191529080a460019056fe608080604052600436101561001357600080fd5b600090813560e01c90816301ffc9a714611ba35750806307e2cea514611b68578063248a9ca314611b325780632f2ff15d14611af157806336568abe14611aac5780633f4ba83a14611a4457806351d36b1e146119145780635c975abb146118f15780636ce2d7cd1461157b5780637c73737314610dcb5780638456cb5914610d715780638992fe7914610ba557806391d1485414610b5d578063a217fddf14610b41578063a54708c8146105b5578063b26d9f00146104de578063ba0e75291461044c578063d547741f14610402578063da561f45146103c7578063db3560521461032e578063dbe0a504146101505763e63ab1e91461011357600080fd5b3461014d578060031936011261014d5760206040517f65d7a28e3265b37a6474929f336521b332c1681b933f6cb9f3376673440d862a8152f35b80fd5b503461014d578060031936011261014d578081600554905b81811061029e57506101798261214f565b916101876040519384611c60565b808352610196601f199161214f565b01835b81811061028d57505082835b8281106101be57604051806101ba8682611d4a565b0390f35b60ff600b6101d46101ce84611fd2565b50612166565b0154166004811015610279571580610260575b80610247575b6101fa575b6001016101a5565b9061023f60019161021d61022461021086611fd2565b5060405192838092611de4565b0382611c60565b61022e82886121f4565b5261023981876121f4565b5061212a565b9190506101f2565b5060086102566101ce83611fd2565b01544211156101ed565b50600761026f6101ce83611fd2565b01544210156101e7565b634e487b7160e01b86526021600452602486fd5b806060602080938701015201610199565b60ff600b6102ae6101ce84611fd2565b015416600481101561031a571580610301575b806102e8575b6102d4575b600101610168565b916102e060019161212a565b9290506102cc565b5060086102f76101ce83611fd2565b01544211156102c7565b5060076103106101ce83611fd2565b01544210156102c1565b634e487b7160e01b85526021600452602485fd5b503461014d57602036600319011261014d576004356001600160a01b038116908190036103c357815260066020526040812080549061036c8261214f565b9261037a6040519485611c60565b82845290815260208082209084015b83831061039e57604051806101ba8782611d4a565b6001602081926040516103b58161021d8189611de4565b815201920192019190610389565b5080fd5b503461014d578060031936011261014d5760206040517f47f77047616880e37bcbbdd9286c33c9168e9c2e1a65e8473c916ac5028b83ba8152f35b503461014d57604036600319011261014d57610448600435610422611bf8565b9061044361043e82600052600060205260016040600020015490565b6122ec565b6123b2565b5080f35b503461014d578060031936011261014d576005546104698161214f565b916104776040519384611c60565b818352600581527f036b6384b5eca791c62761152d0c79bb0604c104a5fb6f4eb0703f3154bb3db0602084015b8383106104b957604051806101ba8782611d4a565b6001602081926040516104d08161021d8189611de4565b8152019201920191906104a4565b503461014d57604036600319011261014d576004356001600160401b0381116103c35761050f903690600401611c81565b6024359060048210156105b15760407f26d0704c5a085e7624f53aaa36cf4bc980dc24e39dc413c0f49c6739e8487d319161054861227a565b6105ad610596600b845160208186516105648183858b01611cd5565b8101600381520301902061057e60ff600d83015416611e67565b01805460ff88811660ff19831617909255169261201b565b946105a384518094611d3d565b6020830190611d3d565ba280f35b8280fd5b503461014d57606036600319011261014d576004356001600160401b0381116103c3576105e6903690600401611c81565b6105ee611bf8565b906044356001600160401b038111610b3d5761060e903690600401611c81565b91610617612434565b604051928251936020818186019661063081838a611cd5565b810160038152030190209361064b60ff600d87015416611e67565b60ff600b860154166004811015610b2957610666901561203b565b6106766008860154421115612092565b6106a16020600a870192610690845460098a0154116120de565b604051809381928951928391611cd5565b8101600481520301902060018060a01b03841687526020526040862091825460ff811615610ae45760ff8160081c16610a9557600387019360ff855460a01c166106ea81611d1d565b6109e1576001600160a01b038616330361097657825115610931576101006003925b61ff00191617815542600282015582519101916001600160401b03821161091d576107418261073b8554611daa565b85611ec2565b602090601f83116001146108ba5761077192918a91836108af575b50508160011b916000199060031b1c19161790565b90555b61077e815461212a565b905560ff815460a81c1661079181611d1d565b801590811561089b575b50610823575b5460a81c60ff166107b181611d1d565b60018103610814575b507f88c9c4719026e7c0b5a5216172ac6fbb4f35308d6c446778fa06cfe3a7103b2160406107f9600560018060a01b036004880154169601549461201b565b81519485524260208601526001600160a01b0390931693a480f35b61081d90611d1d565b386107ba565b6004840154600585015486916001600160a01b0316803b156105b1576044839260405194859384926340c10f1960e01b845260018060a01b038a16600485015260248401525af180156108905761087b575b506107a1565b946108898160ff9397611c60565b9490610875565b6040513d88823e3d90fd5b600291506108a881611d1d565b143861079b565b01519050388061075c565b838a52818a209190601f1984168b5b81811061090557509084600195949392106108ec575b505050811b019055610774565b015160001960f88460031b161c191690553880806108df565b929360206001819287860151815501950193016108c9565b634e487b7160e01b89526041600452602489fd5b60405162461bcd60e51b815260206004820152601d60248201527f4d697373696f6e4d616e616765723a20696e76616c69642070726f6f660000006044820152606490fd5b60405162461bcd60e51b815260206004820152603760248201527f4d697373696f6e4d616e616765723a206f6e6c7920757365722063616e20636f60448201527f6d706c657465206f6e2d636861696e206d697373696f6e0000000000000000006064820152608490fd5b7f68e79a7bf1e0bc45d0a330c573bc367f9cf464fd326078812f301165fbda4ef1895260208981526040808b20338c5290915289205460ff1615610a2a5761010060039261070c565b60405162461bcd60e51b815260206004820152603a60248201527f4d697373696f6e4d616e616765723a206f6e6c79206f7261636c652063616e2060448201527f636f6d706c657465206f66662d636861696e206d697373696f6e0000000000006064820152608490fd5b60405162461bcd60e51b815260206004820152602160248201527f4d697373696f6e4d616e616765723a20616c726561647920636f6d706c6574656044820152601960fa1b6064820152608490fd5b60405162461bcd60e51b815260206004820152601f60248201527f4d697373696f6e4d616e616765723a2075736572206e6f74206a6f696e6564006044820152606490fd5b634e487b7160e01b87526021600452602487fd5b8380fd5b503461014d578060031936011261014d57602090604051908152f35b503461014d57604036600319011261014d5760ff6040602092610b7e611bf8565b60043582528185528282206001600160a01b03909116825284522054604051911615158152f35b503461014d57602036600319011261014d576004356001600160401b0381116103c357610bd6903690600401611c81565b610bde612434565b60405181519060208181850193610bf6818387611cd5565b81016003815203019020610c1060ff600d83015416611e67565b60ff600b82015416600481101561031a57610c2b901561203b565b60078101544210610d2057610c7191610c6082610c5060086020950154421115612092565b6009600a820154910154116120de565b604051809381928651928391611cd5565b600490820190815203019020338352602052604082208054919060ff8316610cdb576001610cab9360ff191617815560014291015561201b565b604051904282527f5378bd8a66a4d55c92ad6d4ea0084d8121e26f5fbbf036cddcb709fa0794a33d60203393a380f35b60405162461bcd60e51b815260206004820152601e60248201527f4d697373696f6e4d616e616765723a20616c7265616479206a6f696e656400006044820152606490fd5b60405162461bcd60e51b815260206004820152602360248201527f4d697373696f6e4d616e616765723a206d697373696f6e206e6f7420737461726044820152621d195960ea1b6064820152608490fd5b503461014d578060031936011261014d57610d8a612208565b610d92612434565b600160ff19815416176001557f62e78cea01bee320cd4e420270b5ea74000d11b0c9f74754ebdbfc544b05a2586020604051338152a180f35b503461014d576101a036600319011261014d576004356001600160401b0381116103c357610dfd903690600401611c81565b6024356001600160401b0381116105b157610e1c903690600401611c81565b6044356001600160401b038111610b3d57610e3b903690600401611c81565b60643592906001600160a01b0384168403611577576003608435101561157757600360a43510156115775760c4356001600160a01b038116810361157357610104356001600160401b03811161156f57610e99903690600401611c81565b90610184356001600160401b03811161156b57610eba903690600401611c81565b91610ec361227a565b610ecb612434565b845115611513578551156114c0576001600160a01b0387161561145f5760ff600d60405160208181610f038b83815193849201611cd5565b8101600381520301902001541661140b57610144356101243510156113bb57610164351561135057610f3660a435611d1d565b60a435158015611339575b611257575b61101a91610f8f60405160208181610f648b83815193849201611cd5565b8101600381520301902095610f798888611f14565b610f868960018901611f14565b60028701611f14565b6003850180546001600160a01b0319166001600160a01b038a16178155610fb7608435611d1d565b8054610fc460a435611d1d565b61ffff60a01b191660843560a01b60ff60a01b161760a43560a81b60ff60a81b161790556004850180546001600160a01b0319166001600160a01b0390921691909117905560e435600585015560068401611f14565b610124356007830155610144356008830155610164356009830155600a8201869055600b8201805460ff191690558051600c8301916001600160401b0382116112435761106b8261073b8554611daa565b602090601f83116001146111dc57918061109f92600d9695948b926108af5750508160011b916000199060031b1c19161790565b90555b01805460ff19166001179055600554600160401b8110156111c8578060016110cf92016005556005612003565b6111a057816110dd91611f14565b6001600160a01b0383168452600660205260408420805490600160401b8210156111b4579061111191600182018155612003565b6111a05761114c826111477fb796701e2119ea67677689f6d5f685df3610ec53b57c2266156325891f3f33a99461116194611f14565b61201b565b92604051918291608083526080830190611cf8565b9461116d608435611d1d565b608435602083015261118060a435611d1d565b60a435604083015260e43560608301526001600160a01b0316940390a380f35b634e487b7160e01b85526004859052602485fd5b634e487b7160e01b86526041600452602486fd5b634e487b7160e01b85526041600452602485fd5b8389528189209190601f1984168a5b81811061122b5750916001939185600d9897969410611212575b505050811b0190556110a2565b015160001960f88460031b161c19169055388080611205565b929360206001819287860151815501950193016111eb565b634e487b7160e01b88526041600452602488fd5b6001600160a01b038216156112d85760e435610f465760405162461bcd60e51b815260206004820152603760248201527f4d697373696f6e4d616e616765723a2072657761726420616d6f756e74206d7560448201527f73742062652067726561746572207468616e207a65726f0000000000000000006064820152608490fd5b60405162461bcd60e51b815260206004820152603360248201527f4d697373696f6e4d616e616765723a2072657761726420746f6b656e20616464604482015272726573732063616e6e6f74206265207a65726f60681b6064820152608490fd5b5061134560a435611d1d565b600260a43514610f41565b60405162461bcd60e51b815260206004820152603960248201527f4d697373696f6e4d616e616765723a206d617820636f6d706c6574696f6e732060448201527f6d7573742062652067726561746572207468616e207a65726f000000000000006064820152608490fd5b60405162461bcd60e51b815260206004820152602260248201527f4d697373696f6e4d616e616765723a20696e76616c69642074696d652072616e604482015261676560f01b6064820152608490fd5b60405162461bcd60e51b815260206004820152602660248201527f4d697373696f6e4d616e616765723a206d697373696f6e20616c72656164792060448201526565786973747360d01b6064820152608490fd5b60405162461bcd60e51b815260206004820152603360248201527f4d697373696f6e4d616e616765723a206272616e642077616c6c65742063616e6044820152726e6f74206265207a65726f206164647265737360681b6064820152608490fd5b60405162461bcd60e51b815260206004820152602560248201527f4d697373696f6e4d616e616765723a207469746c652063616e6e6f7420626520604482015264656d70747960d81b6064820152608490fd5b60405162461bcd60e51b815260206004820152602a60248201527f4d697373696f6e4d616e616765723a206d697373696f6e2049442063616e6e6f6044820152697420626520656d70747960b01b6064820152608490fd5b8780fd5b8680fd5b8580fd5b8480fd5b503461014d57602036600319011261014d576004356001600160401b0381116103c35760206115b1611667923690600401611c81565b836101e06040516115c181611c44565b60608152606085820152606060408201528260608201528260808201528260a08201528260c08201528260e0820152606061010082015282610120820152826101408201528261016082015282610180820152826101a082015260606101c082015201526040519061165660ff600d83519486818187019761164481838b611cd5565b81016003815203019020015416611e67565b604051938492839251928391611cd5565b810160038152030190206040519161167e83611c44565b60405161168f8161021d8186611de4565b83526040516116a58161021d8160018701611de4565b60208401526040516116be8161021d8160028701611de4565b604084015260038201546001600160a01b038116606085015260ff9060a081901c82166116ea81611d1d565b608086015260a81c166116fc81611d1d565b60a084015260048201546001600160a01b031660c0840152600582015460e08401526040516117328161021d8160068701611de4565b610100840152600782015461012084015260088201546101408401526009820154610160840152600a82015461018084015260ff600b830154169060048210156118dd575060ff91600d916101a08501526040516117978161021d81600c8601611de4565b6101c085015201541615156101e08201526040518091602082526101e06118ce6118746118046117ee6117d8865161020060208a0152610220890190611cf8565b6020870151888203601f190160408a0152611cf8565b6040860151878203601f19016060890152611cf8565b60608501516001600160a01b031660808781019190915285015161182781611d1d565b60a087015260a085015161183a81611d1d565b60c087015260018060a01b0360c08601511660e087015260e0850151610100870152610100850151601f1987830301610120880152611cf8565b6101208401516101408601526101408401516101608601526101608401516101808601526101808401516101a08601526118b86101a08501516101c0870190611d3d565b6101c0840151858203601f190184870152611cf8565b91015115156102008301520390f35b634e487b7160e01b81526021600452602490fd5b503461014d578060031936011261014d57602060ff600154166040519015158152f35b503461014d57604036600319011261014d576004356001600160401b0381116103c357906119486040923690600401611c81565b61198b6020611955611bf8565b9260606080875161196581611c13565b878152878582015287898201528783820152015281865193828580945193849201611cd5565b6004908201908152030190206001600160a01b039091168252602052206040516119b481611c13565b6101ba600383549360ff85161515845260ff602085019560081c1615158552600181015460408501908152611a06600283015492606087019384526119ff6040518096819301611de4565b0384611c60565b6080850192835260405195869560208752511515602087015251151560408601525160608501525160808401525160a08084015260c0830190611cf8565b503461014d578060031936011261014d57611a5d612208565b60015460ff811615611a9d5760ff19166001557f5db9ee0a495bf2e6ff9c91a7834c1ba4fdd244a5e8aa4e537bd38aeae4b073aa6020604051338152a180f35b638dfc202b60e01b8252600482fd5b503461014d57604036600319011261014d57611ac6611bf8565b336001600160a01b03821603611ae257610448906004356123b2565b63334bd91960e11b8252600482fd5b503461014d57604036600319011261014d57610448600435611b11611bf8565b90611b2d61043e82600052600060205260016040600020015490565b612327565b503461014d57602036600319011261014d576020611b60600435600052600060205260016040600020015490565b604051908152f35b503461014d578060031936011261014d5760206040517f68e79a7bf1e0bc45d0a330c573bc367f9cf464fd326078812f301165fbda4ef18152f35b9050346103c35760203660031901126103c35760043563ffffffff60e01b81168091036105b15760209250637965db0b60e01b8114908115611be7575b5015158152f35b6301ffc9a760e01b14905038611be0565b602435906001600160a01b0382168203611c0e57565b600080fd5b60a081019081106001600160401b03821117611c2e57604052565b634e487b7160e01b600052604160045260246000fd5b61020081019081106001600160401b03821117611c2e57604052565b90601f801991011681019081106001600160401b03821117611c2e57604052565b81601f82011215611c0e576020813591016001600160401b038211611c2e5760405192611cb8601f8401601f191660200185611c60565b82845282820111611c0e5781600092602092838601378301015290565b60005b838110611ce85750506000910152565b8181015183820152602001611cd8565b90602091611d1181518092818552858086019101611cd5565b601f01601f1916010190565b60031115611d2757565b634e487b7160e01b600052602160045260246000fd5b906004821015611d275752565b602081016020825282518091526040820191602060408360051b8301019401926000915b838310611d7d57505050505090565b9091929394602080611d9b600193603f198682030187528951611cf8565b97019301930191939290611d6e565b90600182811c92168015611dda575b6020831014611dc457565b634e487b7160e01b600052602260045260246000fd5b91607f1691611db9565b60009291815491611df483611daa565b8083529260018116908115611e4a5750600114611e1057505050565b60009081526020812093945091925b838310611e30575060209250010190565b600181602092949394548385870101520191019190611e1f565b915050602093945060ff929192191683830152151560051b010190565b15611e6e57565b60405162461bcd60e51b815260206004820152602660248201527f4d697373696f6e4d616e616765723a206d697373696f6e20646f6573206e6f7460448201526508195e1a5cdd60d21b6064820152608490fd5b601f8211611ecf57505050565b6000526020600020906020601f840160051c83019310611f0a575b601f0160051c01905b818110611efe575050565b60008155600101611ef3565b9091508190611eea565b91909182516001600160401b038111611c2e57611f3b81611f358454611daa565b84611ec2565b6020601f8211600114611f70578190611f6c9394956000926108af5750508160011b916000199060031b1c19161790565b9055565b601f1982169083600052806000209160005b818110611fba57509583600195969710611fa1575b505050811b019055565b015160001960f88460031b161c19169055388080611f97565b9192602060018192868b015181550194019201611f82565b600554811015611fed57600560005260206000200190600090565b634e487b7160e01b600052603260045260246000fd5b8054821015611fed5760005260206000200190600090565b61203390602060405192828480945193849201611cd5565b810103902090565b1561204257565b60405162461bcd60e51b815260206004820152602260248201527f4d697373696f6e4d616e616765723a206d697373696f6e206e6f742061637469604482015261766560f01b6064820152608490fd5b1561209957565b60405162461bcd60e51b815260206004820152601d60248201527f4d697373696f6e4d616e616765723a206d697373696f6e20656e6465640000006044820152606490fd5b156120e557565b60405162461bcd60e51b815260206004820152601c60248201527f4d697373696f6e4d616e616765723a206d697373696f6e2066756c6c000000006044820152606490fd5b60001981146121395760010190565b634e487b7160e01b600052601160045260246000fd5b6001600160401b038111611c2e5760051b60200190565b6040519081600082549261217984611daa565b93600181169081156121da575060011461219e575b5060209250600381520301902090565b9150506000528160206000206000905b8382106121c257505060209181013861218e565b602091925080600191548487015201910183916121ae565b60ff1916845250602093801515028301915038905061218e565b8051821015611fed5760209160051b010190565b3360009081527ff7c9542c591017a21c74b6f3fab6263c7952fc0aaf9db4c22a2a04ddc7f8674f602052604090205460ff161561224157565b63e2517d3f60e01b600052336004527f65d7a28e3265b37a6474929f336521b332c1681b933f6cb9f3376673440d862a60245260446000fd5b3360009081527fc67249d7b0cd6d1879e017a1bbdaf59543d066946f923b7f64ad0418aee68061602052604090205460ff16156122b357565b63e2517d3f60e01b600052336004527f47f77047616880e37bcbbdd9286c33c9168e9c2e1a65e8473c916ac5028b83ba60245260446000fd5b60008181526020818152604080832033845290915290205460ff161561230f5750565b63e2517d3f60e01b6000523360045260245260446000fd5b6000818152602081815260408083206001600160a01b038616845290915290205460ff166123ab576000818152602081815260408083206001600160a01b0395909516808452949091528120805460ff19166001179055339291907f2f8788117e7eff1d82e926ec794901d17c78024a50270940304540a733656f0d9080a4600190565b5050600090565b6000818152602081815260408083206001600160a01b038616845290915290205460ff16156123ab576000818152602081815260408083206001600160a01b0395909516808452949091528120805460ff19169055339291907ff6391f5c32d9c69d2a47ea670b442974b53935d1edc7fd64eb21e047a839171b9080a4600190565b60ff6001541661244057565b63d93c066560e01b60005260046000fdfea264697066735822122005d1d90a05d392920ce9fc2b6129e2a301a964dd00c7a06573405c38ffff3db864736f6c634300081c00332f8788117e7eff1d82e926ec794901d17c78024a50270940304540a733656f0df7c9542c591017a21c74b6f3fab6263c7952fc0aaf9db4c22a2a04ddc7f8674fa629f6981c2f6895a67dc766e8e03ff72d04a413d0d8773a3ca56e9e474032c1c67249d7b0cd6d1879e017a1bbdaf59543d066946f923b7f64ad0418aee68061ad3228b676f7d3cd4284a5443f17f1962b36e491b30a40b2405849e597ba5fb5",
    "linkReferences": {},
    "deployedLinkReferences": {}
}